0MEFAC03084812011022800120110131001201102289780022777                                                 
1201102280211102550022777PT503016160   DIRECTOR MEIOS E PROJECTOS              301                    
2A     Liga‡Æo Central                                                                                
3A 1   Bancos                                                                                         
4A 1 1 201102281                        CPU em real time      000100000000000000000000010000000100000D
6A 1   0000000100000D                                                                                 
7A     0000000000100000D                                                                              
2D     Esquemas Cartao                                                                                
3D 1   Acesso Esquema Crt MB                                                                          
4D 1 2 201102281                        Mensalidade           000050000000000000000000010000000050000D
6D 1   0000000050000D                                                                                 
3D 2   Utiliz Esq Crt MB-Emis                                                                         
4D 2 1 20110201MDST520110201001         De 1 a 1500000        000000000044000000000003110000000000014D
4D 2 1 20110202MDST520110202001         De 1 a 1500000        000000000044000000000007310000000000032D
4D 2 1 20110203MDST520110203001         De 1 a 1500000        000000000044000000000007220000000000032D
4D 2 1 20110203MDST620110203001         De 1 a 1500000        000000000044000000000002210000000000010D
4D 2 1 20110204MDST520110204001         De 1 a 1500000        000000000044000000000006830000000000030D
4D 2 1 20110205MDST520110205001         De 1 a 1500000        000000000044000000000005450000000000024D
4D 2 1 20110206MDST520110206001         De 1 a 1500000        000000000044000000000003480000000000015D
4D 2 1 20110207MDST520110207001         De 1 a 1500000        000000000044000000000005440000000000024D
4D 2 1 20110207MDST620110207001         De 1 a 1500000        000000000044000000000002440000000000011D
4D 2 1 20110208MDST520110208001         De 1 a 1500000        000000000044000000000005750000000000025D
4D 2 1 20110209MDST520110209001         De 1 a 1500000        000000000044000000000005100000000000022D
4D 2 1 20110210MDST520110210001         De 1 a 1500000        000000000044000000000004920000000000022D
4D 2 1 20110211MDST520110211001         De 1 a 1500000        000000000044000000000005080000000000022D
4D 2 1 20110212MDST520110212001         De 1 a 1500000        000000000044000000000005190000000000023D
4D 2 1 20110213MDST520110213001         De 1 a 1500000        000000000044000000000002990000000000013D
4D 2 1 20110214MDST520110214001         De 1 a 1500000        000000000044000000000004820000000000021D
4D 2 1 20110214MDST620110214001         De 1 a 1500000        000000000044000000000003990000000000018D
4D 2 1 20110215MDST520110215001         De 1 a 1500000        000000000044000000000005270000000000023D
4D 2 1 20110216MDST520110216001         De 1 a 1500000        000000000044000000000005160000000000023D
4D 2 1 20110217MDST520110217001         De 1 a 1500000        000000000044000000000005880000000000026D
4D 2 1 20110218MDST520110218001         De 1 a 1500000        000000000044000000000006640000000000029D
4D 2 1 20110219MDST520110219001         De 1 a 1500000        000000000044000000000005530000000000024D
4D 2 1 20110220MDST520110220001         De 1 a 1500000        000000000044000000000004350000000000019D
4D 2 1 20110221MDST520110221001         De 1 a 1500000        000000000044000000000004870000000000021D
4D 2 1 20110221MDST620110221001         De 1 a 1500000        000000000044000000000004650000000000020D
4D 2 1 20110222MDST520110222001         De 1 a 1500000        000000000044000000000004670000000000021D
4D 2 1 20110223MDST520110223001         De 1 a 1500000        000000000044000000000004590000000000020D
4D 2 1 20110224MDST520110224001         De 1 a 1500000        000000000044000000000005070000000000022D
4D 2 1 20110225MDST520110225001         De 1 a 1500000        000000000044000000000004280000000000019D
4D 2 1 20110226MDST520110226001         De 1 a 1500000        000000000044000000000004240000000000019D
4D 2 1 20110227MDST520110227001         De 1 a 1500000        000000000044000000000003000000000000013D
4D 2 1 20110228MDST520110228001         De 1 a 1500000        000000000044000000000003330000000000015D
4D 2 1 20110228MDST620110228001         De 1 a 1500000        000000000044000000000004890000000000022D
6D 2   0000000000694D                                                                                 
3D 5   Utiliz Esq Crt MBSPOT-                                                                         
4D 5 1 20110201MDST520110201001         De 1 a 750000         000000000059000000000010240000000000060D
4D 5 1 20110202MDST520110202001         De 1 a 750000         000000000059000000000013490000000000080D
4D 5 1 20110203MDST520110203001         De 1 a 750000         000000000059000000000010790000000000064D
4D 5 1 20110204MDST520110204001         De 1 a 750000         000000000059000000000009750000000000058D
4D 5 1 20110205MDST520110205001         De 1 a 750000         000000000059000000000007070000000000042D
4D 5 1 20110206MDST520110206001         De 1 a 750000         000000000059000000000004770000000000028D
4D 5 1 20110207MDST520110207001         De 1 a 750000         000000000059000000000007840000000000046D
4D 5 1 20110208MDST520110208001         De 1 a 750000         000000000059000000000007540000000000044D
4D 5 1 20110209MDST520110209001         De 1 a 750000         000000000059000000000006660000000000039D
4D 5 1 20110210MDST520110210001         De 1 a 750000         000000000059000000000006230000000000037D
4D 5 1 20110211MDST520110211001         De 1 a 750000         000000000059000000000005840000000000034D
4D 5 1 20110212MDST520110212001         De 1 a 750000         000000000059000000000005040000000000030D
4D 5 1 20110213MDST520110213001         De 1 a 750000         000000000059000000000003550000000000021D
4D 5 1 20110214MDST520110214001         De 1 a 750000         000000000059000000000005550000000000033D
4D 5 1 20110215MDST520110215001         De 1 a 750000         000000000059000000000006160000000000036D
4D 5 1 20110216MDST520110216001         De 1 a 750000         000000000059000000000005400000000000032D
4D 5 1 20110217MDST520110217001         De 1 a 750000         000000000059000000000006100000000000036D
4D 5 1 20110218MDST520110218001         De 1 a 750000         000000000059000000000005940000000000035D
4D 5 1 20110219MDST520110219001         De 1 a 750000         000000000059000000000005080000000000030D
4D 5 1 20110220MDST520110220001         De 1 a 750000         000000000059000000000003500000000000021D
4D 5 1 20110221MDST520110221001         De 1 a 750000         000000000059000000000005620000000000033D
4D 5 1 20110222MDST520110222001         De 1 a 750000         000000000059000000000004560000000000027D
4D 5 1 20110223MDST520110223001         De 1 a 750000         000000000059000000000005080000000000030D
4D 5 1 20110224MDST520110224001         De 1 a 750000         000000000059000000000005400000000000032D
4D 5 1 20110225MDST520110225001         De 1 a 750000         000000000059000000000004880000000000029D
4D 5 1 20110226MDST520110226001         De 1 a 750000         000000000059000000000003860000000000023D
4D 5 1 20110227MDST520110227001         De 1 a 750000         000000000059000000000003270000000000019D
4D 5 1 20110228MDST520110228001         De 1 a 750000         000000000059000000000005070000000000030D
6D 5   0000000001029D                                                                                 
7D     0000000000051723D                                                                              
2E     Utiliza‡Æo de Cartäes                                                                          
3E 1   Direitos de Utiliza‡Æo                                                                         
4E 1 1 20110228                         De 1 a 50000          000000000986000000000500000000000049300D
4E 1 2 20110228                         De 50001 a 150000     000000000770000000001000000000000077000D
4E 1 3 20110228                         De 150001 a 375000    000000000647000000000473420000000030630D
6E 1   0000000156930D                                                                                 
3E 9   Movimentos de LN                                                                               
4E 9 1 20110228                         Altera‡Æo de situa‡Æo 000000011200000000000027480000000030778D
5E 9 1 MCLN520110201001000001000000000000                                                             
5E 9 1 MCLN520110201001000001000000000000                                                             
5E 9 1 MCLN520110201001000001000000000000                                                             
5E 9 1 MCLN520110201001000001000000000000                                                             
5E 9 1 MCLN520110201001000001000000000000                                                             
5E 9 1 MCLN520110201001000001000000000000                                                             
5E 9 1 MCLN520110201001000001000000000000                                                             
5E 9 1 MCLN520110201001000001000000000000                                                             
5E 9 1 MCLN520110201001000001000000000000                                                             
5E 9 1 MCLN520110201001000001000000000000                                                             
5E 9 1 MCLN520110201001000001000000000000                                                             
5E 9 1 MCLN520110201001000001000000000000                                                             
5E 9 1 MCLN520110201001000001000000000000                                                             
5E 9 1 MCLN520110201001000001000000000000                                                             
5E 9 1 MCLN520110201001000001000000000000                                                             
5E 9 1 MCLN520110201001000001000000000000                                                             
5E 9 1 MCLN520110201001000001000000000000                                                             
5E 9 1 MCLN520110201001000001000000000000                                                             
5E 9 1 MCLN520110201001000001000000000000                                                             
5E 9 1 MCLN520110201001000001000000000000                                                             
5E 9 1 MCLN520110201001000001000000000000                                                             
5E 9 1 MCLN520110201001000001000000000000                                                             
5E 9 1 MCLN520110202001000001000000000000                                                             
5E 9 1 MCLN520110202001000001000000000000                                                             
5E 9 1 MCLN520110202001000001000000000000                                                             
5E 9 1 MCLN520110202001000001000000000000                                                             
5E 9 1 MCLN520110202001000001000000000000                                                             
5E 9 1 MCLN520110202001000001000000000000                                                             
5E 9 1 MCLN520110202001000001000000000000                                                             
5E 9 1 MCLN520110202001000001000000000000                                                             
5E 9 1 MCLN520110202001000001000000000000                                                             
5E 9 1 MCLN520110202001000001000000000000                                                             
5E 9 1 MCLN520110202001000001000000000000                                                             
5E 9 1 MCLN520110202001000001000000000000                                                             
5E 9 1 MCLN520110202001000001000000000000                                                             
5E 9 1 MCLN520110202001000001000000000000                                                             
5E 9 1 MCLN520110202001000001000000000000                                                             
5E 9 1 MCLN520110203001000001000000000000                                                             
5E 9 1 MCLN520110203001000001000000000000                                                             
5E 9 1 MCLN520110203001000001000000000000                                                             
5E 9 1 MCLN520110203001000001000000000000                                                             
5E 9 1 MCLN520110203001000001000000000000                                                             
5E 9 1 MCLN520110203001000001000000000000                                                             
5E 9 1 MCLN520110203001000001000000000000                                                             
5E 9 1 MCLN520110203001000001000000000000                                                             
5E 9 1 MCLN520110203001000001000000000000                                                             
5E 9 1 MCLN520110203001000001000000000000                                                             
5E 9 1 MCLN520110203001000001000000000000                                                             
5E 9 1 MCLN520110203001000001000000000000                                                             
5E 9 1 MCLN520110203001000001000000000000                                                             
5E 9 1 MCLN520110203001000001000000000000                                                             
5E 9 1 MCLN520110203001000001000000000000                                                             
5E 9 1 MCLN520110203001000001000000000000                                                             
5E 9 1 MCLN520110203001000001000000000000                                                             
5E 9 1 MCLN520110203001000001000000000000                                                             
5E 9 1 MCLN520110203001000001000000000000                                                             
5E 9 1 MCLN520110203001000001000000000000                                                             
5E 9 1 MCLN520110203001000001000000000000                                                             
5E 9 1 MCLN520110203001000001000000000000                                                             
5E 9 1 MCLN520110203001000001000000000000                                                             
5E 9 1 MCLN520110203001000001000000000000                                                             
5E 9 1 MCLN520110203001000001000000000000                                                             
5E 9 1 MCLN520110203001000001000000000000                                                             
5E 9 1 MCLN520110203001000001000000000000                                                             
5E 9 1 MCLN520110203001000001000000000000                                                             
5E 9 1 MCLN520110203001000001000000000000                                                             
5E 9 1 MCLN520110203001000001000000000000                                                             
5E 9 1 MCLN520110203001000001000000000000                                                             
5E 9 1 MCLN520110203001000001000000000000                                                             
5E 9 1 MCLN520110203001000001000000000000                                                             
5E 9 1 MCLN520110203001000001000000000000                                                             
5E 9 1 MCLN520110203001000001000000000000                                                             
5E 9 1 MCLN520110204001000001000000000000                                                             
5E 9 1 MCLN520110204001000001000000000000                                                             
5E 9 1 MCLN520110204001000001000000000000                                                             
5E 9 1 MCLN520110204001000001000000000000                                                             
5E 9 1 MCLN520110204001000001000000000000                                                             
5E 9 1 MCLN520110204001000001000000000000                                                             
5E 9 1 MCLN520110204001000001000000000000                                                             
5E 9 1 MCLN520110204001000001000000000000                                                             
5E 9 1 MCLN520110204001000001000000000000                                                             
5E 9 1 MCLN520110204001000001000000000000                                                             
5E 9 1 MCLN520110204001000001000000000000                                                             
5E 9 1 MCLN520110204001000001000000000000                                                             
5E 9 1 MCLN520110204001000001000000000000                                                             
5E 9 1 MCLN520110204001000001000000000000                                                             
5E 9 1 MCLN520110204001000001000000000000                                                             
5E 9 1 MCLN520110204001000001000000000000                                                             
5E 9 1 MCLN520110204001000001000000000000                                                             
5E 9 1 MCLN520110204001000001000000000000                                                             
5E 9 1 MCLN520110204001000001000000000000                                                             
5E 9 1 MCLN520110204001000001000000000000                                                             
5E 9 1 MCLN520110204001000001000000000000                                                             
5E 9 1 MCLN520110204001000001000000000000                                                             
5E 9 1 MCLN520110204001000001000000000000                                                             
5E 9 1 MCLN520110204001000001000000000000                                                             
5E 9 1 MCLN520110204001000001000000000000                                                             
5E 9 1 MCLN520110204001000001000000000000                                                             
5E 9 1 MCLN520110204001000001000000000000                                                             
5E 9 1 MCLN520110204001000001000000000000                                                             
5E 9 1 MCLN520110204001000001000000000000                                                             
5E 9 1 MCLN520110204001000001000000000000                                                             
5E 9 1 MCLN520110204001000001000000000000                                                             
5E 9 1 MCLN520110204001000001000000000000                                                             
5E 9 1 MCLN520110204001000001000000000000                                                             
5E 9 1 MCLN520110204001000001000000000000                                                             
5E 9 1 MCLN520110204001000001000000000000                                                             
5E 9 1 MCLN520110204001000001000000000000                                                             
5E 9 1 MCLN520110204001000001000000000000                                                             
5E 9 1 MCLN520110204001000001000000000000                                                             
5E 9 1 MCLN520110204001000001000000000000                                                             
5E 9 1 MCLN520110204001000001000000000000                                                             
5E 9 1 MCLN520110204001000001000000000000                                                             
5E 9 1 MCLN520110204001000001000000000000                                                             
5E 9 1 MCLN520110204001000001000000000000                                                             
5E 9 1 MCLN520110204001000001000000000000                                                             
5E 9 1 MCLN520110204001000001000000000000                                                             
5E 9 1 MCLN520110204001000001000000000000                                                             
5E 9 1 MCLN520110207001000001000000000000                                                             
5E 9 1 MCLN520110207001000001000000000000                                                             
5E 9 1 MCLN520110207001000001000000000000                                                             
5E 9 1 MCLN520110207001000001000000000000                                                             
5E 9 1 MCLN520110207001000001000000000000                                                             
5E 9 1 MCLN520110207001000001000000000000                                                             
5E 9 1 MCLN520110207001000001000000000000                                                             
5E 9 1 MCLN520110207001000001000000000000                                                             
5E 9 1 MCLN520110207001000001000000000000                                                             
5E 9 1 MCLN520110207001000001000000000000                                                             
5E 9 1 MCLN520110207001000001000000000000                                                             
5E 9 1 MCLN520110207001000001000000000000                                                             
5E 9 1 MCLN520110207001000001000000000000                                                             
5E 9 1 MCLN520110207001000001000000000000                                                             
5E 9 1 MCLN520110207001000001000000000000                                                             
5E 9 1 MCLN520110207001000001000000000000                                                             
5E 9 1 MCLN520110207001000001000000000000                                                             
5E 9 1 MCLN520110207001000001000000000000                                                             
5E 9 1 MCLN520110207001000001000000000000                                                             
5E 9 1 MCLN520110207001000001000000000000                                                             
5E 9 1 MCLN520110207001000001000000000000                                                             
5E 9 1 MCLN520110207001000001000000000000                                                             
5E 9 1 MCLN520110207001000001000000000000                                                             
5E 9 1 MCLN520110207001000001000000000000                                                             
5E 9 1 MCLN520110207001000001000000000000                                                             
5E 9 1 MCLN520110207001000001000000000000                                                             
5E 9 1 MCLN520110207001000001000000000000                                                             
5E 9 1 MCLN520110207001000001000000000000                                                             
5E 9 1 MCLN520110207001000001000000000000                                                             
5E 9 1 MCLN520110207001000001000000000000                                                             
5E 9 1 MCLN520110208001000001000000000000                                                             
5E 9 1 MCLN520110208001000001000000000000                                                             
5E 9 1 MCLN520110208001000001000000000000                                                             
5E 9 1 MCLN520110208001000001000000000000                                                             
5E 9 1 MCLN520110208001000001000000000000                                                             
5E 9 1 MCLN520110208001000001000000000000                                                             
5E 9 1 MCLN520110208001000001000000000000                                                             
5E 9 1 MCLN520110208001000001000000000000                                                             
5E 9 1 MCLN520110208001000001000000000000                                                             
5E 9 1 MCLN520110208001000001000000000000                                                             
5E 9 1 MCLN520110208001000001000000000000                                                             
5E 9 1 MCLN520110208001000001000000000000                                                             
5E 9 1 MCLN520110208001000001000000000000                                                             
5E 9 1 MCLN520110208001000001000000000000                                                             
5E 9 1 MCLN520110208001000001000000000000                                                             
5E 9 1 MCLN520110208001000001000000000000                                                             
5E 9 1 MCLN520110208001000001000000000000                                                             
5E 9 1 MCLN520110208001000001000000000000                                                             
5E 9 1 MCLN520110208001000001000000000000                                                             
5E 9 1 MCLN520110208001000001000000000000                                                             
5E 9 1 MCLN520110208001000001000000000000                                                             
5E 9 1 MCLN520110208001000001000000000000                                                             
5E 9 1 MCLN520110208001000001000000000000                                                             
5E 9 1 MCLN520110208001000001000000000000                                                             
5E 9 1 MCLN520110208001000001000000000000                                                             
5E 9 1 MCLN520110208001000001000000000000                                                             
5E 9 1 MCLN520110208001000001000000000000                                                             
5E 9 1 MCLN520110208001000001000000000000                                                             
5E 9 1 MCLN520110208001000001000000000000                                                             
5E 9 1 MCLN520110209001000001000000000000                                                             
5E 9 1 MCLN520110209001000001000000000000                                                             
5E 9 1 MCLN520110209001000001000000000000                                                             
5E 9 1 MCLN520110209001000001000000000000                                                             
5E 9 1 MCLN520110209001000001000000000000                                                             
5E 9 1 MCLN520110209001000001000000000000                                                             
5E 9 1 MCLN520110209001000001000000000000                                                             
5E 9 1 MCLN520110209001000001000000000000                                                             
5E 9 1 MCLN520110209001000001000000000000                                                             
5E 9 1 MCLN520110209001000001000000000000                                                             
5E 9 1 MCLN520110209001000001000000000000                                                             
5E 9 1 MCLN520110209001000001000000000000                                                             
5E 9 1 MCLN520110209001000001000000000000                                                             
5E 9 1 MCLN520110209001000001000000000000                                                             
5E 9 1 MCLN520110210001000001000000000000                                                             
5E 9 1 MCLN520110210001000001000000000000                                                             
5E 9 1 MCLN520110210001000001000000000000                                                             
5E 9 1 MCLN520110210001000001000000000000                                                             
5E 9 1 MCLN520110210001000001000000000000                                                             
5E 9 1 MCLN520110210001000001000000000000                                                             
5E 9 1 MCLN520110210001000001000000000000                                                             
5E 9 1 MCLN520110210001000001000000000000                                                             
5E 9 1 MCLN520110210001000001000000000000                                                             
5E 9 1 MCLN520110210001000001000000000000                                                             
5E 9 1 MCLN520110210001000001000000000000                                                             
5E 9 1 MCLN520110210001000001000000000000                                                             
5E 9 1 MCLN520110210001000001000000000000                                                             
5E 9 1 MCLN520110210001000001000000000000                                                             
5E 9 1 MCLN520110210001000001000000000000                                                             
5E 9 1 MCLN520110210001000001000000000000                                                             
5E 9 1 MCLN520110210001000001000000000000                                                             
5E 9 1 MCLN520110210001000001000000000000                                                             
5E 9 1 MCLN520110210001000001000000000000                                                             
5E 9 1 MCLN520110210001000001000000000000                                                             
5E 9 1 MCLN520110210001000001000000000000                                                             
5E 9 1 MCLN520110210001000001000000000000                                                             
5E 9 1 MCLN520110210001000001000000000000                                                             
5E 9 1 MCLN520110210001000001000000000000                                                             
5E 9 1 MCLN520110211001000001000000000000                                                             
5E 9 1 MCLN520110211001000001000000000000                                                             
5E 9 1 MCLN520110211001000001000000000000                                                             
5E 9 1 MCLN520110211001000001000000000000                                                             
5E 9 1 MCLN520110211001000001000000000000                                                             
5E 9 1 MCLN520110211001000001000000000000                                                             
5E 9 1 MCLN520110211001000001000000000000                                                             
5E 9 1 MCLN520110211001000001000000000000                                                             
5E 9 1 MCLN520110211001000001000000000000                                                             
5E 9 1 MCLN520110211001000001000000000000                                                             
5E 9 1 MCLN520110211001000001000000000000                                                             
5E 9 1 MCLN520110211001000001000000000000                                                             
5E 9 1 MCLN520110211001000001000000000000                                                             
5E 9 1 MCLN520110211001000001000000000000                                                             
5E 9 1 MCLN520110211001000001000000000000                                                             
5E 9 1 MCLN520110211001000001000000000000                                                             
5E 9 1 MCLN520110211001000001000000000000                                                             
5E 9 1 MCLN520110212001000001000000000000                                                             
5E 9 1 MCLN520110212001000001000000000000                                                             
5E 9 1 MCLN520110214001000001000000000000                                                             
5E 9 1 MCLN520110214001000001000000000000                                                             
5E 9 1 MCLN520110214001000001000000000000                                                             
5E 9 1 MCLN520110214001000001000000000000                                                             
5E 9 1 MCLN520110214001000001000000000000                                                             
5E 9 1 MCLN520110214001000001000000000000                                                             
5E 9 1 MCLN520110214001000001000000000000                                                             
5E 9 1 MCLN520110214001000001000000000000                                                             
5E 9 1 MCLN520110214001000001000000000000                                                             
5E 9 1 MCLN520110214001000001000000000000                                                             
5E 9 1 MCLN520110214001000001000000000000                                                             
5E 9 1 MCLN520110214001000001000000000000                                                             
5E 9 1 MCLN520110214001000001000000000000                                                             
5E 9 1 MCLN520110214001000001000000000000                                                             
5E 9 1 MCLN520110214001000001000000000000                                                             
5E 9 1 MCLN520110214001000001000000000000                                                             
5E 9 1 MCLN520110214001000001000000000000                                                             
5E 9 1 MCLN520110214001000001000000000000                                                             
5E 9 1 MCLN520110214001000001000000000000                                                             
5E 9 1 MCLN520110215001000001000000000000                                                             
5E 9 1 MCLN520110215001000001000000000000                                                             
5E 9 1 MCLN520110215001000001000000000000                                                             
5E 9 1 MCLN520110215001000001000000000000                                                             
5E 9 1 MCLN520110215001000001000000000000                                                             
5E 9 1 MCLN520110215001000001000000000000                                                             
5E 9 1 MCLN520110215001000001000000000000                                                             
5E 9 1 MCLN520110215001000001000000000000                                                             
5E 9 1 MCLN520110215001000001000000000000                                                             
5E 9 1 MCLN520110215001000001000000000000                                                             
5E 9 1 MCLN520110215001000001000000000000                                                             
5E 9 1 MCLN520110215001000001000000000000                                                             
5E 9 1 MCLN520110215001000001000000000000                                                             
5E 9 1 MCLN520110215001000001000000000000                                                             
5E 9 1 MCLN520110215001000001000000000000                                                             
5E 9 1 MCLN520110215001000001000000000000                                                             
5E 9 1 MCLN520110215001000001000000000000                                                             
5E 9 1 MCLN520110215001000001000000000000                                                             
5E 9 1 MCLN520110215001000001000000000000                                                             
5E 9 1 MCLN520110215001000001000000000000                                                             
5E 9 1 MCLN520110216001000001000000000000                                                             
5E 9 1 MCLN520110216001000001000000000000                                                             
5E 9 1 MCLN520110216001000001000000000000                                                             
5E 9 1 MCLN520110216001000001000000000000                                                             
5E 9 1 MCLN520110216001000001000000000000                                                             
5E 9 1 MCLN520110216001000001000000000000                                                             
5E 9 1 MCLN520110216001000001000000000000                                                             
5E 9 1 MCLN520110216001000001000000000000                                                             
5E 9 1 MCLN520110216001000001000000000000                                                             
5E 9 1 MCLN520110216001000001000000000000                                                             
5E 9 1 MCLN520110216001000001000000000000                                                             
5E 9 1 MCLN520110216001000001000000000000                                                             
5E 9 1 MCLN520110216001000001000000000000                                                             
5E 9 1 MCLN520110216001000001000000000000                                                             
5E 9 1 MCLN520110216001000001000000000000                                                             
5E 9 1 MCLN520110216001000001000000000000                                                             
5E 9 1 MCLN520110216001000001000000000000                                                             
5E 9 1 MCLN520110216001000001000000000000                                                             
5E 9 1 MCLN520110216001000001000000000000                                                             
5E 9 1 MCLN520110216001000001000000000000                                                             
5E 9 1 MCLN520110216001000001000000000000                                                             
5E 9 1 MCLN520110216001000001000000000000                                                             
5E 9 1 MCLN520110216001000001000000000000                                                             
5E 9 1 MCLN520110217001000001000000000000                                                             
5E 9 1 MCLN520110217001000001000000000000                                                             
5E 9 1 MCLN520110217001000001000000000000                                                             
5E 9 1 MCLN520110217001000001000000000000                                                             
5E 9 1 MCLN520110217001000001000000000000                                                             
5E 9 1 MCLN520110217001000001000000000000                                                             
5E 9 1 MCLN520110217001000001000000000000                                                             
5E 9 1 MCLN520110217001000001000000000000                                                             
5E 9 1 MCLN520110217001000001000000000000                                                             
5E 9 1 MCLN520110217001000001000000000000                                                             
5E 9 1 MCLN520110217001000001000000000000                                                             
5E 9 1 MCLN520110217001000001000000000000                                                             
5E 9 1 MCLN520110217001000001000000000000                                                             
5E 9 1 MCLN520110217001000001000000000000                                                             
5E 9 1 MCLN520110217001000001000000000000                                                             
5E 9 1 MCLN520110217001000001000000000000                                                             
5E 9 1 MCLN520110217001000001000000000000                                                             
5E 9 1 MCLN520110217001000001000000000000                                                             
5E 9 1 MCLN520110217001000001000000000000                                                             
5E 9 1 MCLN520110217001000001000000000000                                                             
5E 9 1 MCLN520110218001000001000000000000                                                             
5E 9 1 MCLN520110218001000001000000000000                                                             
5E 9 1 MCLN520110218001000001000000000000                                                             
5E 9 1 MCLN520110218001000001000000000000                                                             
5E 9 1 MCLN520110218001000001000000000000                                                             
5E 9 1 MCLN520110218001000001000000000000                                                             
5E 9 1 MCLN520110218001000001000000000000                                                             
5E 9 1 MCLN520110218001000001000000000000                                                             
5E 9 1 MCLN520110218001000001000000000000                                                             
5E 9 1 MCLN520110218001000001000000000000                                                             
5E 9 1 MCLN520110218001000001000000000000                                                             
5E 9 1 MCLN520110218001000001000000000000                                                             
5E 9 1 MCLN520110218001000001000000000000                                                             
5E 9 1 MCLN520110221001000001000000000000                                                             
5E 9 1 MCLN520110221001000001000000000000                                                             
5E 9 1 MCLN520110221001000001000000000000                                                             
5E 9 1 MCLN520110221001000001000000000000                                                             
5E 9 1 MCLN520110221001000001000000000000                                                             
5E 9 1 MCLN520110221001000001000000000000                                                             
5E 9 1 MCLN520110221001000001000000000000                                                             
5E 9 1 MCLN520110221001000001000000000000                                                             
5E 9 1 MCLN520110221001000001000000000000                                                             
5E 9 1 MCLN520110221001000001000000000000                                                             
5E 9 1 MCLN520110221001000001000000000000                                                             
5E 9 1 MCLN520110221001000001000000000000                                                             
5E 9 1 MCLN520110221001000001000000000000                                                             
5E 9 1 MCLN520110221001000001000000000000                                                             
5E 9 1 MCLN520110221001000001000000000000                                                             
5E 9 1 MCLN520110221001000001000000000000                                                             
5E 9 1 MCLN520110221001000001000000000000                                                             
5E 9 1 MCLN520110221001000001000000000000                                                             
5E 9 1 MCLN520110222001000001000000000000                                                             
5E 9 1 MCLN520110222001000001000000000000                                                             
5E 9 1 MCLN520110222001000001000000000000                                                             
5E 9 1 MCLN520110222001000001000000000000                                                             
5E 9 1 MCLN520110222001000001000000000000                                                             
5E 9 1 MCLN520110222001000001000000000000                                                             
5E 9 1 MCLN520110222001000001000000000000                                                             
5E 9 1 MCLN520110222001000001000000000000                                                             
5E 9 1 MCLN520110222001000001000000000000                                                             
5E 9 1 MCLN520110222001000001000000000000                                                             
5E 9 1 MCLN520110222001000001000000000000                                                             
5E 9 1 MCLN520110222001000001000000000000                                                             
5E 9 1 MCLN520110222001000001000000000000                                                             
5E 9 1 MCLN520110222001000001000000000000                                                             
5E 9 1 MCLN520110222001000001000000000000                                                             
5E 9 1 MCLN520110223001000001000000000000                                                             
5E 9 1 MCLN520110223001000001000000000000                                                             
5E 9 1 MCLN520110223001000001000000000000                                                             
5E 9 1 MCLN520110223001000001000000000000                                                             
5E 9 1 MCLN520110223001000001000000000000                                                             
5E 9 1 MCLN520110223001000001000000000000                                                             
5E 9 1 MCLN520110223001000001000000000000                                                             
5E 9 1 MCLN520110223001000001000000000000                                                             
5E 9 1 MCLN520110224001000001000000000000                                                             
5E 9 1 MCLN520110224001000001000000000000                                                             
5E 9 1 MCLN520110224001000001000000000000                                                             
5E 9 1 MCLN520110224001000001000000000000                                                             
5E 9 1 MCLN520110224001000001000000000000                                                             
5E 9 1 MCLN520110224001000001000000000000                                                             
5E 9 1 MCLN520110224001000001000000000000                                                             
5E 9 1 MCLN520110224001000001000000000000                                                             
5E 9 1 MCLN520110224001000001000000000000                                                             
5E 9 1 MCLN520110224001000001000000000000                                                             
5E 9 1 MCLN520110224001000001000000000000                                                             
5E 9 1 MCLN520110224001000001000000000000                                                             
5E 9 1 MCLN520110224001000001000000000000                                                             
5E 9 1 MCLN520110224001000001000000000000                                                             
5E 9 1 MCLN520110225001000001000000000000                                                             
5E 9 1 MCLN520110225001000001000000000000                                                             
5E 9 1 MCLN520110225001000001000000000000                                                             
5E 9 1 MCLN520110225001000001000000000000                                                             
5E 9 1 MCLN520110225001000001000000000000                                                             
5E 9 1 MCLN520110225001000001000000000000                                                             
5E 9 1 MCLN520110225001000001000000000000                                                             
5E 9 1 MCLN520110225001000001000000000000                                                             
5E 9 1 MCLN520110225001000001000000000000                                                             
5E 9 1 MCLN520110225001000001000000000000                                                             
5E 9 1 MCLN520110225001000001000000000000                                                             
5E 9 1 MCLN520110225001000001000000000000                                                             
5E 9 1 MCLN520110228001000001000000000000                                                             
5E 9 1 MCLN520110228001000001000000000000                                                             
5E 9 1 MCLN520110228001000001000000000000                                                             
5E 9 1 MCLN520110228001000001000000000000                                                             
5E 9 1 MCLN520110228001000001000000000000                                                             
5E 9 1 MCLN520110228001000001000000000000                                                             
5E 9 1 MCLN520110228001000001000000000000                                                             
5E 9 1 MCLN520110228001000001000000000000                                                             
5E 9 1 MCLN520110228001000001000000000000                                                             
5E 9 1 MCLN520110228001000001000000000000                                                             
5E 9 1 MCLN520110228001000001000000000000                                                             
5E 9 1 MCLN520110228001000001000000000000                                                             
5E 9 1 MEASC20110224002000000000000000001                                                             
5E 9 1 MEASC20110218001000000000000000028                                                             
5E 9 1 MEASC20110201001000000000000000034                                                             
5E 9 1 MEASC20110207001000000000000000034                                                             
5E 9 1 MEASC20110204001000000000000000037                                                             
5E 9 1 MEASC20110203001000000000000000042                                                             
5E 9 1 MEASC20110223001000000000000000048                                                             
5E 9 1 MEASC20110216001000000000000000059                                                             
5E 9 1 MEASC20110202001000000000000000060                                                             
5E 9 1 MEASC20110217001000000000000000080                                                             
5E 9 1 MEASC20110211001000000000000000082                                                             
5E 9 1 MEASC20110225001000000000000000082                                                             
5E 9 1 MEASC20110131001000000000000000093                                                             
5E 9 1 MEASC20110224001000000000000000097                                                             
5E 9 1 MEASC20110222001000000000000000099                                                             
5E 9 1 MEASC20110209001000000000000000104                                                             
5E 9 1 MEASC20110208001000000000000000157                                                             
5E 9 1 MEASC20110221001000000000000000186                                                             
5E 9 1 MEASC20110214001000000000000000194                                                             
5E 9 1 MEASC20110215001000000000000000277                                                             
5E 9 1 MEASC20110210001000000000000000546                                                             
4E 9 2 20110228                         Lista Negra de Rede   000000011200000000000000320000000000358D
5E 9 2 MCLN520110201001000001                                                                         
5E 9 2 MCLN520110202001000001                                                                         
5E 9 2 MCLN520110202001000001                                                                         
5E 9 2 MCLN520110203001000001                                                                         
5E 9 2 MCLN520110203001000001                                                                         
5E 9 2 MCLN520110204001000001                                                                         
5E 9 2 MCLN520110204001000001                                                                         
5E 9 2 MCLN520110204001000001                                                                         
5E 9 2 MCLN520110204001000001                                                                         
5E 9 2 MCLN520110206001000001                                                                         
5E 9 2 MCLN520110207001000001                                                                         
5E 9 2 MCLN520110207001000001                                                                         
5E 9 2 MCLN520110209001000001                                                                         
5E 9 2 MCLN520110211001000001                                                                         
5E 9 2 MCLN520110212001000001                                                                         
5E 9 2 MCLN520110212001000001                                                                         
5E 9 2 MCLN520110212001000001                                                                         
5E 9 2 MCLN520110215001000001                                                                         
5E 9 2 MCLN520110217001000001                                                                         
5E 9 2 MCLN520110217001000001                                                                         
5E 9 2 MCLN520110218001000001                                                                         
5E 9 2 MCLN520110218001000001                                                                         
5E 9 2 MCLN520110219001000001                                                                         
5E 9 2 MCLN520110220001000001                                                                         
5E 9 2 MCLN520110221001000001                                                                         
5E 9 2 MCLN520110221001000001                                                                         
5E 9 2 MCLN520110222001000001                                                                         
5E 9 2 MCLN520110223001000001                                                                         
5E 9 2 MCLN520110223001000001                                                                         
5E 9 2 MCLN520110225001000001                                                                         
5E 9 2 MCLN520110226001000001                                                                         
5E 9 2 MCLN520110228001000001                                                                         
4E 9 3 20110228                         Lista Negra Urgente   000000385000000000000001900000000073150D
5E 9 3 MCLN520110201001000001                                                                         
5E 9 3 MCLN520110201001000001                                                                         
5E 9 3 MCLN520110202001000001                                                                         
5E 9 3 MCLN520110203001000001                                                                         
5E 9 3 MCLN520110203001000001                                                                         
5E 9 3 MCLN520110203001000001                                                                         
5E 9 3 MCLN520110204001000001                                                                         
5E 9 3 MCLN520110204001000001                                                                         
5E 9 3 MCLN520110204001000001                                                                         
5E 9 3 MCLN520110207001000001                                                                         
5E 9 3 MCLN520110207001000001                                                                         
5E 9 3 MCLN520110207001000001                                                                         
5E 9 3 MCLN520110208001000001                                                                         
5E 9 3 MCLN520110208001000001                                                                         
5E 9 3 MCLN520110208001000001                                                                         
5E 9 3 MCLN520110209001000001                                                                         
5E 9 3 MCLN520110209001000001                                                                         
5E 9 3 MCLN520110209001000001                                                                         
5E 9 3 MCLN520110209001000001                                                                         
5E 9 3 MCLN520110209001000001                                                                         
5E 9 3 MCLN520110209001000001                                                                         
5E 9 3 MCLN520110209001000001                                                                         
5E 9 3 MCLN520110209001000001                                                                         
5E 9 3 MCLN520110209001000001                                                                         
5E 9 3 MCLN520110209001000001                                                                         
5E 9 3 MCLN520110209001000001                                                                         
5E 9 3 MCLN520110209001000001                                                                         
5E 9 3 MCLN520110209001000001                                                                         
5E 9 3 MCLN520110209001000001                                                                         
5E 9 3 MCLN520110209001000001                                                                         
5E 9 3 MCLN520110209001000001                                                                         
5E 9 3 MCLN520110209001000001                                                                         
5E 9 3 MCLN520110209001000001                                                                         
5E 9 3 MCLN520110209001000001                                                                         
5E 9 3 MCLN520110209001000001                                                                         
5E 9 3 MCLN520110209001000001                                                                         
5E 9 3 MCLN520110209001000001                                                                         
5E 9 3 MCLN520110209001000001                                                                         
5E 9 3 MCLN520110209001000001                                                                         
5E 9 3 MCLN520110209001000001                                                                         
5E 9 3 MCLN520110209001000001                                                                         
5E 9 3 MCLN520110209001000001                                                                         
5E 9 3 MCLN520110209001000001                                                                         
5E 9 3 MCLN520110210001000001                                                                         
5E 9 3 MCLN520110211001000001                                                                         
5E 9 3 MCLN520110211001000001                                                                         
5E 9 3 MCLN520110211001000001                                                                         
5E 9 3 MCLN520110211001000001                                                                         
5E 9 3 MCLN520110211001000001                                                                         
5E 9 3 MCLN520110211001000001                                                                         
5E 9 3 MCLN520110211001000001                                                                         
5E 9 3 MCLN520110211001000001                                                                         
5E 9 3 MCLN520110211001000001                                                                         
5E 9 3 MCLN520110211001000001                                                                         
5E 9 3 MCLN520110211001000001                                                                         
5E 9 3 MCLN520110211001000001                                                                         
5E 9 3 MCLN520110211001000001                                                                         
5E 9 3 MCLN520110211001000001                                                                         
5E 9 3 MCLN520110211001000001                                                                         
5E 9 3 MCLN520110211001000001                                                                         
5E 9 3 MCLN520110211001000001                                                                         
5E 9 3 MCLN520110211001000001                                                                         
5E 9 3 MCLN520110211001000001                                                                         
5E 9 3 MCLN520110211001000001                                                                         
5E 9 3 MCLN520110211001000001                                                                         
5E 9 3 MCLN520110211001000001                                                                         
5E 9 3 MCLN520110211001000001                                                                         
5E 9 3 MCLN520110211001000001                                                                         
5E 9 3 MCLN520110211001000001                                                                         
5E 9 3 MCLN520110211001000001                                                                         
5E 9 3 MCLN520110211001000001                                                                         
5E 9 3 MCLN520110211001000001                                                                         
5E 9 3 MCLN520110211001000001                                                                         
5E 9 3 MCLN520110211001000001                                                                         
5E 9 3 MCLN520110211001000001                                                                         
5E 9 3 MCLN520110211001000001                                                                         
5E 9 3 MCLN520110211001000001                                                                         
5E 9 3 MCLN520110211001000001                                                                         
5E 9 3 MCLN520110211001000001                                                                         
5E 9 3 MCLN520110211001000001                                                                         
5E 9 3 MCLN520110211001000001                                                                         
5E 9 3 MCLN520110211001000001                                                                         
5E 9 3 MCLN520110211001000001                                                                         
5E 9 3 MCLN520110211001000001                                                                         
5E 9 3 MCLN520110211001000001                                                                         
5E 9 3 MCLN520110211001000001                                                                         
5E 9 3 MCLN520110211001000001                                                                         
5E 9 3 MCLN520110212001000001                                                                         
5E 9 3 MCLN520110212001000001                                                                         
5E 9 3 MCLN520110212001000001                                                                         
5E 9 3 MCLN520110213001000001                                                                         
5E 9 3 MCLN520110215001000001                                                                         
5E 9 3 MCLN520110217001000001                                                                         
5E 9 3 MCLN520110217001000001                                                                         
5E 9 3 MCLN520110217001000001                                                                         
5E 9 3 MCLN520110217001000001                                                                         
5E 9 3 MCLN520110217001000001                                                                         
5E 9 3 MCLN520110217001000001                                                                         
5E 9 3 MCLN520110217001000001                                                                         
5E 9 3 MCLN520110217001000001                                                                         
5E 9 3 MCLN520110217001000001                                                                         
5E 9 3 MCLN520110217001000001                                                                         
5E 9 3 MCLN520110217001000001                                                                         
5E 9 3 MCLN520110217001000001                                                                         
5E 9 3 MCLN520110217001000001                                                                         
5E 9 3 MCLN520110217001000001                                                                         
5E 9 3 MCLN520110217001000001                                                                         
5E 9 3 MCLN520110217001000001                                                                         
5E 9 3 MCLN520110217001000001                                                                         
5E 9 3 MCLN520110217001000001                                                                         
5E 9 3 MCLN520110217001000001                                                                         
5E 9 3 MCLN520110217001000001                                                                         
5E 9 3 MCLN520110217001000001                                                                         
5E 9 3 MCLN520110217001000001                                                                         
5E 9 3 MCLN520110217001000001                                                                         
5E 9 3 MCLN520110217001000001                                                                         
5E 9 3 MCLN520110217001000001                                                                         
5E 9 3 MCLN520110217001000001                                                                         
5E 9 3 MCLN520110217001000001                                                                         
5E 9 3 MCLN520110217001000001                                                                         
5E 9 3 MCLN520110217001000001                                                                         
5E 9 3 MCLN520110217001000001                                                                         
5E 9 3 MCLN520110217001000001                                                                         
5E 9 3 MCLN520110217001000001                                                                         
5E 9 3 MCLN520110217001000001                                                                         
5E 9 3 MCLN520110217001000001                                                                         
5E 9 3 MCLN520110217001000001                                                                         
5E 9 3 MCLN520110217001000001                                                                         
5E 9 3 MCLN520110217001000001                                                                         
5E 9 3 MCLN520110217001000001                                                                         
5E 9 3 MCLN520110217001000001                                                                         
5E 9 3 MCLN520110218001000001                                                                         
5E 9 3 MCLN520110218001000001                                                                         
5E 9 3 MCLN520110219001000001                                                                         
5E 9 3 MCLN520110219001000001                                                                         
5E 9 3 MCLN520110219001000001                                                                         
5E 9 3 MCLN520110220001000001                                                                         
5E 9 3 MCLN520110221001000001                                                                         
5E 9 3 MCLN520110221001000001                                                                         
5E 9 3 MCLN520110221001000001                                                                         
5E 9 3 MCLN520110222001000001                                                                         
5E 9 3 MCLN520110222001000001                                                                         
5E 9 3 MCLN520110222001000001                                                                         
5E 9 3 MCLN520110224001000001                                                                         
5E 9 3 MCLN520110225001000001                                                                         
5E 9 3 MCLN520110225001000001                                                                         
5E 9 3 MCLN520110225001000001                                                                         
5E 9 3 MCLN520110225001000001                                                                         
5E 9 3 MCLN520110225001000001                                                                         
5E 9 3 MCLN520110225001000001                                                                         
5E 9 3 MCLN520110225001000001                                                                         
5E 9 3 MCLN520110225001000001                                                                         
5E 9 3 MCLN520110225001000001                                                                         
5E 9 3 MCLN520110225001000001                                                                         
5E 9 3 MCLN520110225001000001                                                                         
5E 9 3 MCLN520110225001000001                                                                         
5E 9 3 MCLN520110225001000001                                                                         
5E 9 3 MCLN520110225001000001                                                                         
5E 9 3 MCLN520110225001000001                                                                         
5E 9 3 MCLN520110225001000001                                                                         
5E 9 3 MCLN520110225001000001                                                                         
5E 9 3 MCLN520110225001000001                                                                         
5E 9 3 MCLN520110225001000001                                                                         
5E 9 3 MCLN520110225001000001                                                                         
5E 9 3 MCLN520110225001000001                                                                         
5E 9 3 MCLN520110225001000001                                                                         
5E 9 3 MCLN520110225001000001                                                                         
5E 9 3 MCLN520110225001000001                                                                         
5E 9 3 MCLN520110225001000001                                                                         
5E 9 3 MCLN520110225001000001                                                                         
5E 9 3 MCLN520110225001000001                                                                         
5E 9 3 MCLN520110225001000001                                                                         
5E 9 3 MCLN520110225001000001                                                                         
5E 9 3 MCLN520110225001000001                                                                         
5E 9 3 MCLN520110225001000001                                                                         
5E 9 3 MCLN520110225001000001                                                                         
5E 9 3 MCLN520110225001000001                                                                         
5E 9 3 MCLN520110225001000001                                                                         
5E 9 3 MCLN520110225001000001                                                                         
5E 9 3 MCLN520110225001000001                                                                         
5E 9 3 MCLN520110225001000001                                                                         
5E 9 3 MCLN520110225001000001                                                                         
5E 9 3 MCLN520110225001000001                                                                         
5E 9 3 MCLN520110225001000001                                                                         
5E 9 3 MCLN520110225001000001                                                                         
5E 9 3 MCLN520110225001000001                                                                         
5E 9 3 MCLN520110225001000001                                                                         
5E 9 3 MCLN520110226001000001                                                                         
5E 9 3 MCLN520110227001000001                                                                         
5E 9 3 MCLN520110228001000001                                                                         
4E 9 4 20110228MECST20110228001         Permanˆncia em LN     000000011200000000000035410000000039659D
6E 9   0000000143945D                                                                                 
7E     0000000000300875D                                                                              
2F     GestÆo Fich PIN                                                                                
3F 7   GestÆo Fich de PIN                                                                             
4F 7 1 20110228                         De 1 a 25000          000000002500000000000250000000000062500D
4F 7 2 20110228                         De 25001 a 50000      000000002200000000000250000000000055000D
4F 7 3 20110228                         De 50001 a 75000      000000002000000000000250000000000050000D
4F 7 4 20110228                         De 75001 a 100000     000000001700000000000250000000000042500D
4F 7 5 20110228                         De 100001 a 125000    000000001500000000000250000000000037500D
4F 7 6 20110228                         De 125001 a 150000    000000001200000000000250000000000030000D
4F 7 7 20110228                         De 150001 a 175000    000000001000000000000250000000000025000D
4F 7 8 20110228                         De 175001 a 200000    000000000700000000000128170000000008972D
6F 7   0000000311472D                                                                                 
7F     0000000000311472D                                                                              
2G     Transac‡äes                                                                                    
3G 1   Levantamentos Emissor                                                                          
4G 1 1 20110201MDST520110201001         De 1 a 50000          000000001811000000000002790000000000505D
4G 1 1 20110202MDST520110202001         De 1 a 50000          000000001811000000000006960000000001260D
4G 1 1 20110203MDST520110203001         De 1 a 50000          000000001811000000000006760000000001224D
4G 1 1 20110204MDST520110204001         De 1 a 50000          000000001811000000000006380000000001155D
4G 1 1 20110205MDST520110205001         De 1 a 50000          000000001811000000000004870000000000882D
4G 1 1 20110206MDST520110206001         De 1 a 50000          000000001811000000000003220000000000583D
4G 1 1 20110207MDST520110207001         De 1 a 50000          000000001811000000000004980000000000902D
4G 1 1 20110208MDST520110208001         De 1 a 50000          000000001811000000000005290000000000958D
4G 1 1 20110209MDST520110209001         De 1 a 50000          000000001811000000000004620000000000837D
4G 1 1 20110210MDST520110210001         De 1 a 50000          000000001811000000000004470000000000810D
4G 1 1 20110211MDST520110211001         De 1 a 50000          000000001811000000000004550000000000824D
4G 1 1 20110212MDST520110212001         De 1 a 50000          000000001811000000000004640000000000840D
4G 1 1 20110213MDST520110213001         De 1 a 50000          000000001811000000000002720000000000493D
4G 1 1 20110214MDST520110214001         De 1 a 50000          000000001811000000000004300000000000779D
4G 1 1 20110215MDST520110215001         De 1 a 50000          000000001811000000000004880000000000884D
4G 1 1 20110216MDST520110216001         De 1 a 50000          000000001811000000000004820000000000873D
4G 1 1 20110217MDST520110217001         De 1 a 50000          000000001811000000000005450000000000987D
4G 1 1 20110218MDST520110218001         De 1 a 50000          000000001811000000000006110000000001107D
4G 1 1 20110219MDST520110219001         De 1 a 50000          000000001811000000000005020000000000909D
4G 1 1 20110220MDST520110220001         De 1 a 50000          000000001811000000000003950000000000715D
4G 1 1 20110221MDST520110221001         De 1 a 50000          000000001811000000000004390000000000795D
4G 1 1 20110222MDST520110222001         De 1 a 50000          000000001811000000000004160000000000753D
4G 1 1 20110223MDST520110223001         De 1 a 50000          000000001811000000000004260000000000771D
4G 1 1 20110224MDST520110224001         De 1 a 50000          000000001811000000000004650000000000842D
4G 1 1 20110225MDST520110225001         De 1 a 50000          000000001811000000000003810000000000690D
4G 1 1 20110226MDST520110226001         De 1 a 50000          000000001811000000000003730000000000676D
4G 1 1 20110227MDST520110227001         De 1 a 50000          000000001811000000000002610000000000473D
4G 1 1 20110228MDST520110228001         De 1 a 50000          000000001811000000000003010000000000545D
6G 1   0000000023072D                                                                                 
3G 2   Outras Opera‡äes                                                                               
4G 2 1 20110201MDST520110201001         De 1 a 40000          000000001437000000000011790000000001694D
4G 2 1 20110202MDST520110202001         De 1 a 40000          000000001437000000000015100000000002170D
4G 2 1 20110203MDST520110203001         De 1 a 40000          000000001437000000000012080000000001736D
4G 2 1 20110204MDST520110204001         De 1 a 40000          000000001437000000000011060000000001589D
4G 2 1 20110205MDST520110205001         De 1 a 40000          000000001437000000000008740000000001256D
4G 2 1 20110206MDST520110206001         De 1 a 40000          000000001437000000000005350000000000769D
4G 2 1 20110207MDST520110207001         De 1 a 40000          000000001437000000000009520000000001368D
4G 2 1 20110208MDST520110208001         De 1 a 40000          000000001437000000000009390000000001349D
4G 2 1 20110209MDST520110209001         De 1 a 40000          000000001437000000000008450000000001214D
4G 2 1 20110210MDST520110210001         De 1 a 40000          000000001437000000000007900000000001135D
4G 2 1 20110211MDST520110211001         De 1 a 40000          000000001437000000000007690000000001105D
4G 2 1 20110212MDST520110212001         De 1 a 40000          000000001437000000000006790000000000976D
4G 2 1 20110213MDST520110213001         De 1 a 40000          000000001437000000000004160000000000598D
4G 2 1 20110214MDST520110214001         De 1 a 40000          000000001437000000000007270000000001045D
4G 2 1 20110215MDST520110215001         De 1 a 40000          000000001437000000000008070000000001160D
4G 2 1 20110216MDST520110216001         De 1 a 40000          000000001437000000000006910000000000993D
4G 2 1 20110217MDST520110217001         De 1 a 40000          000000001437000000000007540000000001083D
4G 2 1 20110218MDST520110218001         De 1 a 40000          000000001437000000000007740000000001112D
4G 2 1 20110219MDST520110219001         De 1 a 40000          000000001437000000000006500000000000934D
4G 2 1 20110220MDST520110220001         De 1 a 40000          000000001437000000000003960000000000569D
4G 2 1 20110221MDST520110221001         De 1 a 40000          000000001437000000000007360000000001058D
4G 2 1 20110222MDST520110222001         De 1 a 40000          000000001437000000000006320000000000908D
4G 2 1 20110223MDST520110223001         De 1 a 40000          000000001437000000000006560000000000943D
4G 2 1 20110224MDST520110224001         De 1 a 40000          000000001437000000000007020000000001009D
4G 2 1 20110225MDST520110225001         De 1 a 40000          000000001437000000000006240000000000897D
4G 2 1 20110226MDST520110226001         De 1 a 40000          000000001437000000000005040000000000724D
4G 2 1 20110227MDST520110227001         De 1 a 40000          000000001437000000000003880000000000558D
4G 2 1 20110228MDST520110228001         De 1 a 40000          000000001437000000000006370000000000915D
6G 2   0000000030867D                                                                                 
3G 3   Compras TPA                                                                                    
4G 3 1 20110201MDST520110201001         De 1 a 200000         000000000847000000000002050000000000174D
4G 3 1 20110202MDST520110202001         De 1 a 200000         000000000847000000000002700000000000229D
4G 3 1 20110203MDST520110203001         De 1 a 200000         000000000847000000000002800000000000237D
4G 3 1 20110204MDST520110204001         De 1 a 200000         000000000847000000000003070000000000260D
4G 3 1 20110205MDST520110205001         De 1 a 200000         000000000847000000000004270000000000362D
4G 3 1 20110206MDST520110206001         De 1 a 200000         000000000847000000000003380000000000286D
4G 3 1 20110207MDST520110207001         De 1 a 200000         000000000847000000000002460000000000208D
4G 3 1 20110208MDST520110208001         De 1 a 200000         000000000847000000000002620000000000222D
4G 3 1 20110209MDST520110209001         De 1 a 200000         000000000847000000000002900000000000246D
4G 3 1 20110210MDST520110210001         De 1 a 200000         000000000847000000000002370000000000201D
4G 3 1 20110211MDST520110211001         De 1 a 200000         000000000847000000000003020000000000256D
4G 3 1 20110212MDST520110212001         De 1 a 200000         000000000847000000000004150000000000352D
4G 3 1 20110213MDST520110213001         De 1 a 200000         000000000847000000000003610000000000306D
4G 3 1 20110214MDST520110214001         De 1 a 200000         000000000847000000000002890000000000245D
4G 3 1 20110215MDST520110215001         De 1 a 200000         000000000847000000000002970000000000252D
4G 3 1 20110216MDST520110216001         De 1 a 200000         000000000847000000000002810000000000238D
4G 3 1 20110217MDST520110217001         De 1 a 200000         000000000847000000000003070000000000260D
4G 3 1 20110218MDST520110218001         De 1 a 200000         000000000847000000000003460000000000293D
4G 3 1 20110219MDST520110219001         De 1 a 200000         000000000847000000000004060000000000344D
4G 3 1 20110220MDST520110220001         De 1 a 200000         000000000847000000000004140000000000351D
4G 3 1 20110221MDST520110221001         De 1 a 200000         000000000847000000000002720000000000230D
4G 3 1 20110222MDST520110222001         De 1 a 200000         000000000847000000000002600000000000220D
4G 3 1 20110223MDST520110223001         De 1 a 200000         000000000847000000000002680000000000227D
4G 3 1 20110224MDST520110224001         De 1 a 200000         000000000847000000000002560000000000217D
4G 3 1 20110225MDST520110225001         De 1 a 200000         000000000847000000000002600000000000220D
4G 3 1 20110226MDST520110226001         De 1 a 200000         000000000847000000000003840000000000325D
4G 3 1 20110227MDST520110227001         De 1 a 200000         000000000847000000000003720000000000315D
4G 3 1 20110228MDST520110228001         De 1 a 200000         000000000847000000000002220000000000188D
6G 3   0000000007264D                                                                                 
3G 4   Compras TPA                                                                                    
4G 4 1 20110201MMOV520110201001         De 1 a 200000         000000000847000000000000410000000000035D
4G 4 1 20110202MMOV520110202001         De 1 a 200000         000000000847000000000000490000000000042D
4G 4 1 20110203MMOV520110203001         De 1 a 200000         000000000847000000000000400000000000034D
4G 4 1 20110204MMOV520110204001         De 1 a 200000         000000000847000000000000520000000000044D
4G 4 1 20110205MMOV520110205001         De 1 a 200000         000000000847000000000000940000000000080D
4G 4 1 20110206MMOV520110206001         De 1 a 200000         000000000847000000000000970000000000082D
4G 4 1 20110207MMOV520110207001         De 1 a 200000         000000000847000000000000360000000000030D
4G 4 1 20110208MMOV520110208001         De 1 a 200000         000000000847000000000000430000000000036D
4G 4 1 20110209MMOV520110209001         De 1 a 200000         000000000847000000000000530000000000045D
4G 4 1 20110210MMOV520110210001         De 1 a 200000         000000000847000000000000340000000000029D
4G 4 1 20110211MMOV520110211001         De 1 a 200000         000000000847000000000000470000000000040D
4G 4 1 20110212MMOV520110212001         De 1 a 200000         000000000847000000000000920000000000078D
4G 4 1 20110213MMOV520110213001         De 1 a 200000         000000000847000000000000830000000000070D
4G 4 1 20110214MMOV520110214001         De 1 a 200000         000000000847000000000000200000000000017D
4G 4 1 20110215MMOV520110215001         De 1 a 200000         000000000847000000000000480000000000041D
4G 4 1 20110216MMOV520110216001         De 1 a 200000         000000000847000000000000380000000000032D
4G 4 1 20110217MMOV520110217001         De 1 a 200000         000000000847000000000000490000000000042D
4G 4 1 20110218MMOV520110218001         De 1 a 200000         000000000847000000000000390000000000033D
4G 4 1 20110219MMOV520110219001         De 1 a 200000         000000000847000000000000990000000000084D
4G 4 1 20110220MMOV520110220001         De 1 a 200000         000000000847000000000001060000000000090D
4G 4 1 20110221MMOV520110221001         De 1 a 200000         000000000847000000000000420000000000036D
4G 4 1 20110222MMOV520110222001         De 1 a 200000         000000000847000000000000470000000000040D
4G 4 1 20110223MMOV520110223001         De 1 a 200000         000000000847000000000000780000000000066D
4G 4 1 20110224MMOV520110224001         De 1 a 200000         000000000847000000000000490000000000042D
4G 4 1 20110225MMOV520110225001         De 1 a 200000         000000000847000000000000580000000000049D
4G 4 1 20110226MMOV520110226001         De 1 a 200000         000000000847000000000000900000000000076D
4G 4 1 20110227MMOV520110227001         De 1 a 200000         000000000847000000000001290000000000109D
4G 4 1 20110228MMOV520110228001         De 1 a 200000         000000000847000000000000510000000000043D
6G 4   0000000001445D                                                                                 
7G     0000000000062648D                                                                              
2I     Encargos Servi‡o TPA                                                                           
3I 2   EmissÆo de Extracto                                                                            
4I 2 2 2011022801362680001              Tar extr electronico  000000034000000000000000560000000001904D
4I 2 2 2011022801362680007              Tar extr electronico  000000034000000000000000560000000001904D
4I 2 2 2011022801362680011              Tar extr electronico  000000034000000000000000060000000000204D
4I 2 2 2011022801362680014              Tar extr electronico  000000034000000000000000010000000000034D
4I 2 2 2011022801362680015              Tar extr electronico  000000034000000000000000560000000001904D
4I 2 3 20110228013626800017/2011/032    Format extr envio mail000000009000000000000000010000000000009D
4I 2 3 20110228013626800017/2011/033    Format extr envio mail000000009000000000000000010000000000009D
4I 2 3 20110228013626800017/2011/034    Format extr envio mail000000009000000000000000010000000000009D
4I 2 3 20110228013626800017/2011/035    Format extr envio mail000000009000000000000000010000000000009D
4I 2 3 20110228013626800017/2011/036    Format extr envio mail000000009000000000000000010000000000009D
4I 2 3 20110228013626800017/2011/037    Format extr envio mail000000009000000000000000010000000000009D
4I 2 3 20110228013626800017/2011/038    Format extr envio mail000000009000000000000000010000000000009D
4I 2 3 20110228013626800017/2011/039    Format extr envio mail000000009000000000000000010000000000009D
4I 2 3 20110228013626800017/2011/040    Format extr envio mail000000009000000000000000010000000000009D
4I 2 3 20110228013626800017/2011/041    Format extr envio mail000000009000000000000000010000000000009D
4I 2 3 20110228013626800017/2011/042    Format extr envio mail000000009000000000000000010000000000009D
4I 2 3 20110228013626800017/2011/043    Format extr envio mail000000009000000000000000010000000000009D
4I 2 3 20110228013626800017/2011/044    Format extr envio mail000000009000000000000000010000000000009D
4I 2 3 20110228013626800017/2011/045    Format extr envio mail000000009000000000000000010000000000009D
4I 2 3 20110228013626800017/2011/046    Format extr envio mail000000009000000000000000010000000000009D
4I 2 3 20110228013626800017/2011/047    Format extr envio mail000000009000000000000000010000000000009D
4I 2 3 20110228013626800017/2011/048    Format extr envio mail000000009000000000000000010000000000009D
4I 2 3 20110228013626800017/2011/049    Format extr envio mail000000009000000000000000010000000000009D
4I 2 3 20110228013626800017/2011/050    Format extr envio mail000000009000000000000000010000000000009D
4I 2 3 20110228013626800017/2011/051    Format extr envio mail000000009000000000000000010000000000009D
4I 2 3 20110228013626800017/2011/052    Format extr envio mail000000009000000000000000010000000000009D
4I 2 3 20110228013626800017/2011/053    Format extr envio mail000000009000000000000000010000000000009D
4I 2 3 20110228013626800017/2011/054    Format extr envio mail000000009000000000000000010000000000009D
4I 2 3 20110228013626800017/2011/055    Format extr envio mail000000009000000000000000010000000000009D
4I 2 3 20110228013626800017/2011/056    Format extr envio mail000000009000000000000000010000000000009D
4I 2 3 20110228013626800017/2011/057    Format extr envio mail000000009000000000000000010000000000009D
4I 2 3 20110228013626800017/2011/058    Format extr envio mail000000009000000000000000010000000000009D
4I 2 3 20110228013626800017/2011/059    Format extr envio mail000000009000000000000000010000000000009D
4I 2 3 20110228013626800077/2011/032    Format extr envio mail000000009000000000000000010000000000009D
4I 2 3 20110228013626800077/2011/033    Format extr envio mail000000009000000000000000010000000000009D
4I 2 3 20110228013626800077/2011/034    Format extr envio mail000000009000000000000000010000000000009D
4I 2 3 20110228013626800077/2011/035    Format extr envio mail000000009000000000000000010000000000009D
4I 2 3 20110228013626800077/2011/036    Format extr envio mail000000009000000000000000010000000000009D
4I 2 3 20110228013626800077/2011/037    Format extr envio mail000000009000000000000000010000000000009D
4I 2 3 20110228013626800077/2011/038    Format extr envio mail000000009000000000000000010000000000009D
4I 2 3 20110228013626800077/2011/039    Format extr envio mail000000009000000000000000010000000000009D
4I 2 3 20110228013626800077/2011/040    Format extr envio mail000000009000000000000000010000000000009D
4I 2 3 20110228013626800077/2011/041    Format extr envio mail000000009000000000000000010000000000009D
4I 2 3 20110228013626800077/2011/042    Format extr envio mail000000009000000000000000010000000000009D
4I 2 3 20110228013626800077/2011/043    Format extr envio mail000000009000000000000000010000000000009D
4I 2 3 20110228013626800077/2011/044    Format extr envio mail000000009000000000000000010000000000009D
4I 2 3 20110228013626800077/2011/045    Format extr envio mail000000009000000000000000010000000000009D
4I 2 3 20110228013626800077/2011/046    Format extr envio mail000000009000000000000000010000000000009D
4I 2 3 20110228013626800077/2011/047    Format extr envio mail000000009000000000000000010000000000009D
4I 2 3 20110228013626800077/2011/048    Format extr envio mail000000009000000000000000010000000000009D
4I 2 3 20110228013626800077/2011/049    Format extr envio mail000000009000000000000000010000000000009D
4I 2 3 20110228013626800077/2011/050    Format extr envio mail000000009000000000000000010000000000009D
4I 2 3 20110228013626800077/2011/051    Format extr envio mail000000009000000000000000010000000000009D
4I 2 3 20110228013626800077/2011/052    Format extr envio mail000000009000000000000000010000000000009D
4I 2 3 20110228013626800077/2011/053    Format extr envio mail000000009000000000000000010000000000009D
4I 2 3 20110228013626800077/2011/054    Format extr envio mail000000009000000000000000010000000000009D
4I 2 3 20110228013626800077/2011/055    Format extr envio mail000000009000000000000000010000000000009D
4I 2 3 20110228013626800077/2011/056    Format extr envio mail000000009000000000000000010000000000009D
4I 2 3 20110228013626800077/2011/057    Format extr envio mail000000009000000000000000010000000000009D
4I 2 3 20110228013626800077/2011/058    Format extr envio mail000000009000000000000000010000000000009D
4I 2 3 20110228013626800077/2011/059    Format extr envio mail000000009000000000000000010000000000009D
4I 2 3 20110228013626800117/2011/007    Format extr envio mail000000009000000000000000010000000000009D
4I 2 3 20110228013626800117/2011/008    Format extr envio mail000000009000000000000000010000000000009D
4I 2 3 20110228013626800117/2011/009    Format extr envio mail000000009000000000000000010000000000009D
4I 2 3 20110228013626800147/2011/001    Format extr envio mail000000009000000000000000010000000000009D
4I 2 3 20110228013626800157/2011/032    Format extr envio mail000000009000000000000000010000000000009D
4I 2 3 20110228013626800157/2011/033    Format extr envio mail000000009000000000000000010000000000009D
4I 2 3 20110228013626800157/2011/034    Format extr envio mail000000009000000000000000010000000000009D
4I 2 3 20110228013626800157/2011/035    Format extr envio mail000000009000000000000000010000000000009D
4I 2 3 20110228013626800157/2011/036    Format extr envio mail000000009000000000000000010000000000009D
4I 2 3 20110228013626800157/2011/037    Format extr envio mail000000009000000000000000010000000000009D
4I 2 3 20110228013626800157/2011/038    Format extr envio mail000000009000000000000000010000000000009D
4I 2 3 20110228013626800157/2011/039    Format extr envio mail000000009000000000000000010000000000009D
4I 2 3 20110228013626800157/2011/040    Format extr envio mail000000009000000000000000010000000000009D
4I 2 3 20110228013626800157/2011/041    Format extr envio mail000000009000000000000000010000000000009D
4I 2 3 20110228013626800157/2011/042    Format extr envio mail000000009000000000000000010000000000009D
4I 2 3 20110228013626800157/2011/043    Format extr envio mail000000009000000000000000010000000000009D
4I 2 3 20110228013626800157/2011/044    Format extr envio mail000000009000000000000000010000000000009D
4I 2 3 20110228013626800157/2011/045    Format extr envio mail000000009000000000000000010000000000009D
4I 2 3 20110228013626800157/2011/046    Format extr envio mail000000009000000000000000010000000000009D
4I 2 3 20110228013626800157/2011/047    Format extr envio mail000000009000000000000000010000000000009D
4I 2 3 20110228013626800157/2011/048    Format extr envio mail000000009000000000000000010000000000009D
4I 2 3 20110228013626800157/2011/049    Format extr envio mail000000009000000000000000010000000000009D
4I 2 3 20110228013626800157/2011/050    Format extr envio mail000000009000000000000000010000000000009D
4I 2 3 20110228013626800157/2011/051    Format extr envio mail000000009000000000000000010000000000009D
4I 2 3 20110228013626800157/2011/052    Format extr envio mail000000009000000000000000010000000000009D
4I 2 3 20110228013626800157/2011/053    Format extr envio mail000000009000000000000000010000000000009D
4I 2 3 20110228013626800157/2011/054    Format extr envio mail000000009000000000000000010000000000009D
4I 2 3 20110228013626800157/2011/055    Format extr envio mail000000009000000000000000010000000000009D
4I 2 3 20110228013626800157/2011/056    Format extr envio mail000000009000000000000000010000000000009D
4I 2 3 20110228013626800157/2011/057    Format extr envio mail000000009000000000000000010000000000009D
4I 2 3 20110228013626800157/2011/058    Format extr envio mail000000009000000000000000010000000000009D
4I 2 3 20110228013626800157/2011/059    Format extr envio mail000000009000000000000000010000000000009D
