0MELCB0008481201402050012014020400197862000000000                                                                                                                                                                                                                                                                                                                                                                                                                      
163610790100033  N001        202204010102                                                      00000000000000000000000000000000000D                                                                                                                                                                                                                                                                                                                                    
20000616361079015449550151211000000000010000014036CONTINENTE COLOMBO                                    102000000000000000000000000000001636107901544955400000999900000000000000000000000999900000000000000000000000000000000000000000000000000000000000000000   1858909999548                                                                                                                                                                                         
300006163610790154495501512CONTINENTE COLOMBO                                                                                                                          AVENIDA LUSIADA                                                                                                                             LISBOA                             1500-392LISBOA                                  620                                                              
4000061636107901544955015121858909999548  VITALNAP                                                                                                                                                                                                                                                                                                                                                                                                                     
20000626361079015449568151211000000000010000014036CONTINENTE COLOMBO                                    102000000000000000000000000000001636107901544956400000999900000000000000000000000999900000000000000000000000000000000000000000000000000000000000000000   1858909999531                                                                                                                                                                                         
300006263610790154495681512CONTINENTE COLOMBO                                                                                                                          AVENIDA LUSIADA                                                                                                                             LISBOA                             1500-392LISBOA                                  620                                                              
4000062636107901544956815121858909999531  VITALNAP                                                                                                                                                                                                                                                                                                                                                                                                                     
20000636361079015449576151211000000000010000014036CONTINENTE COLOMBO                                    102000000000000000000000000000001636107901544957400000999900000000000000000000000999900000000000000000000000000000000000000000000000000000000000000000   1858909999524                                                                                                                                                                                         
300006363610790154495761512CONTINENTE COLOMBO                                                                                                                          AVENIDA LUSIADA                                                                                                                             LISBOA                             1500-392LISBOA                                  620                                                              
4000063636107901544957615121858909999524  VITALNAP                                                                                                                                                                                                                                                                                                                                                                                                                     
20000646361079015449584151211000000000010000014036CONTINENTE COLOMBO                                    102000000000000000000000000000001636107901544958400000999900000000000000000000000999900000000000000000000000000000000000000000000000000000000000000000   1858909999517                                                                                                                                                                                         
300006463610790154495841512CONTINENTE COLOMBO                                                                                                                          AVENIDA LUSIADA                                                                                                                             LISBOA                             1500-392LISBOA                                  620                                                              
4000064636107901544958415121858909999517  VITALNAP                                                                                                                                                                                                                                                                                                                                                                                                                     
20000656361079015449592151211000000000010000014036CONTINENTE COLOMBO                                    102000000000000000000000000000001636107901544959400000999900000000000000000000000999900000000000000000000000000000000000000000000000000000000000000000   1858909999500                                                                                                                                                                                         
300006563610790154495921512CONTINENTE COLOMBO                                                                                                                          AVENIDA LUSIADA                                                                                                                             LISBOA                             1500-392LISBOA                                  620                                                              
4000065636107901544959215121858909999500  VITALNAP                                                                                                                                                                                                                                                                                                                                                                                                                     
20000666361079015449600151211000000000010000014036CONTINENTE COLOMBO                                    102000000000000000000000000000001636107901544960400000999900000000000000000000000999900000000000000000000000000000000000000000000000000000000000000000   1858909999494                                                                                                                                                                                         
300006663610790154496001512CONTINENTE COLOMBO                                                                                                                          AVENIDA LUSIADA                                                                                                                             LISBOA                             1500-392LISBOA                                  620                                                              
4000066636107901544960015121858909999494  VITALNAP                                                                                                                                                                                                                                                                                                                                                                                                                     
20000676361079015449618151211000000000010000014036CONTINENTE COLOMBO                                    102000000000000000000000000000001636107901544961400000999900000000000000000000000999900000000000000000000000000000000000000000000000000000000000000000   1858909999487                                                                                                                                                                                         
300006763610790154496181512CONTINENTE COLOMBO                                                                                                                          AVENIDA LUSIADA                                                                                                                             LISBOA                             1500-392LISBOA                                  620                                                              
4000067636107901544961815121858909999487  VITALNAP                                                                                                                                                                                                                                                                                                                                                                                                                     
20000686361079015449626151211000000000010000014036CONTINENTE COLOMBO                                    102000000000000000000000000000001636107901544962400000999900000000000000000000000999900000000000000000000000000000000000000000000000000000000000000000   1858909999470                                                                                                                                                                                         
300006863610790154496261512CONTINENTE COLOMBO                                                                                                                          AVENIDA LUSIADA                                                                                                                             LISBOA                             1500-392LISBOA                                  620                                                              
4000068636107901544962615121858909999470  VITALNAP                                                                                                                                                                                                                                                                                                                                                                                                                     
20000696361079015449634151211000000000010000014036CONTINENTE COLOMBO                                    102000000000000000000000000000001636107901544963400000999900000000000000000000000999900000000000000000000000000000000000000000000000000000000000000000   1858909999463                                                                                                                                                                                         
300006963610790154496341512CONTINENTE COLOMBO                                                                                                                          AVENIDA LUSIADA                                                                                                                             LISBOA                             1500-392LISBOA                                  620                                                              
4000069636107901544963415121858909999463  VITALNAP                                                                                                                                                                                                                                                                                                                                                                                                                     
20000706361079015449642151211000000000010000014036CONTINENTE COLOMBO                                    102000000000000000000000000000001636107901544964400000999900000000000000000000000999900000000000000000000000000000000000000000000000000000000000000000   1858909999456                                                                                                                                                                                         
300007063610790154496421512CONTINENTE COLOMBO                                                                                                                          AVENIDA LUSIADA                                                                                                                             LISBOA                             1500-392LISBOA                                  620                                                              
4000070636107901544964215121858909999456  VITALNAP                                                                                                                                                                                                                                                                                                                                                                                                                     
20000716361079015449659151211000000000010000014036CONTINENTE COLOMBO                                    102000000000000000000000000000001636107901544965400000999900000000000000000000000999900000000000000000000000000000000000000000000000000000000000000000   1858909999449                                                                                                                                                                                         
300007163610790154496591512CONTINENTE COLOMBO                                                                                                                          AVENIDA LUSIADA                                                                                                                             LISBOA                             1500-392LISBOA                                  620                                                              
4000071636107901544965915121858909999449  VITALNAP                                                                                                                                                                                                                                                                                                                                                                                                                     
20000726361079015449667151211000000000010000014036CONTINENTE COLOMBO                                    102000000000000000000000000000001636107901544966400000999900000000000000000000000999900000000000000000000000000000000000000000000000000000000000000000   1858909999432                                                                                                                                                                                         
300007263610790154496671512CONTINENTE COLOMBO                                                                                                                          AVENIDA LUSIADA                                                                                                                             LISBOA                             1500-392LISBOA                                  620                                                              
4000072636107901544966715121858909999432  VITALNAP                                                                                                                                                                                                                                                                                                                                                                                                                     
20000736361079015449675151211000000000010000014036CONTINENTE COLOMBO                                    102000000000000000000000000000001636107901544967400000999900000000000000000000000999900000000000000000000000000000000000000000000000000000000000000000   1858909999425                                                                                                                                                                                         
300007363610790154496751512CONTINENTE COLOMBO                                                                                                                          AVENIDA LUSIADA                                                                                                                             LISBOA                             1500-392LISBOA                                  620                                                              
4000073636107901544967515121858909999425  VITALNAP                                                                                                                                                                                                                                                                                                                                                                                                                     
20000746361079015449683151211000000000010000014036CONTINENTE COLOMBO                                    102000000000000000000000000000001636107901544968400000999900000000000000000000000999900000000000000000000000000000000000000000000000000000000000000000   1858909999418                                                                                                                                                                                         
300007463610790154496831512CONTINENTE COLOMBO                                                                                                                          AVENIDA LUSIADA                                                                                                                             LISBOA                             1500-392LISBOA                                  620                                                              
4000074636107901544968315121858909999418  VITALNAP                                                                                                                                                                                                                                                                                                                                                                                                                     
20000756361079015449691151211000000000010000014036CONTINENTE COLOMBO                                    102000000000000000000000000000001636107901544969400000999900000000000000000000000999900000000000000000000000000000000000000000000000000000000000000000   1858909999401                                                                                                                                                                                         
300007563610790154496911512CONTINENTE COLOMBO                                                                                                                          AVENIDA LUSIADA                                                                                                                             LISBOA                             1500-392LISBOA                                  620                                                              
4000075636107901544969115121858909999401  VITALNAP                                                                                                                                                                                                                                                                                                                                                                                                                     
20000766361079015449709151211000000000010000014036CONTINENTE COLOMBO                                    102000000000000000000000000000001636107901544970400000999900000000000000000000000999900000000000000000000000000000000000000000000000000000000000000000   1858909999395                                                                                                                                                                                         
300007663610790154497091512CONTINENTE COLOMBO                                                                                                                          AVENIDA LUSIADA                                                                                                                             LISBOA                             1500-392LISBOA                                  620                                                              
4000076636107901544970915121858909999395  VITALNAP                                                                                                                                                                                                                                                                                                                                                                                                                     
20000776361079015449717151211000000000010000014036CONTINENTE COLOMBO                                    102000000000000000000000000000001636107901544971400000999900000000000000000000000999900000000000000000000000000000000000000000000000000000000000000000   1858909999388                                                                                                                                                                                         
300007763610790154497171512CONTINENTE COLOMBO                                                                                                                          AVENIDA LUSIADA                                                                                                                             LISBOA                             1500-392LISBOA                                  620                                                              
4000077636107901544971715121858909999388  VITALNAP                                                                                                                                                                                                                                                                                                                                                                                                                     
20000786361079015449725151211000000000010000014036CONTINENTE COLOMBO                                    102000000000000000000000000000001636107901544972400000999900000000000000000000000999900000000000000000000000000000000000000000000000000000000000000000   1858909999371                                                                                                                                                                                         
300007863610790154497251512CONTINENTE COLOMBO                                                                                                                          AVENIDA LUSIADA                                                                                                                             LISBOA                             1500-392LISBOA                                  620                                                              
4000078636107901544972515121858909999371  VITALNAP                                                                                                                                                                                                                                                                                                                                                                                                                     
20000796361079015449733151211000000000010000014036CONTINENTE COLOMBO                                    102000000000000000000000000000001636107901544973400000999900000000000000000000000999900000000000000000000000000000000000000000000000000000000000000000   1858909999364                                                                                                                                                                                         
300007963610790154497331512CONTINENTE COLOMBO                                                                                                                          AVENIDA LUSIADA                                                                                                                             LISBOA                             1500-392LISBOA                                  620                                                              
4000079636107901544973315121858909999364  VITALNAP                                                                                                                                                                                                                                                                                                                                                                                                                     
20000806361079015449741151211000000000010000014036CONTINENTE COLOMBO                                    102000000000000000000000000000001636107901544974400000999900000000000000000000000999900000000000000000000000000000000000000000000000000000000000000000   1858909999357                                                                                                                                                                                         
300008063610790154497411512CONTINENTE COLOMBO                                                                                                                          AVENIDA LUSIADA                                                                                                                             LISBOA                             1500-392LISBOA                                  620                                                              
4000080636107901544974115121858909999357  VITALNAP                                                                                                                                                                                                                                                                                                                                                                                                                     
900000061000000000000000000000000000000000                                                                                                                                                                                                                                                                                                                                                                                                                             
0MELCB0008481201402050022014020500197862000000000                                                                                                                                                                                                                                                                                                                                                                                                                      
163610792100033  N001        202207010102                                                      00000000000000000000000000000000000D                                                                                                                                                                                                                                                                                                                                    
20000416361079215483896151211000000000010000014036CONTINENTE BOM DIA BENFICA                            102000000000000000000000000000001636107921548389400000999900000000000000000000000999900000000000000000000000000000000000000000000000000000000000000000   1858909999968                                                                                                                                                                                         
300004163610792154838961512CONTINENTE BOM DIA BENFICA                                                                                                                  RUA OLIVERIO SERPA                                                                                                                          LISBOA                             1500-471LISBOA                                  620                                                              
4000041636107921548389615121858909999968  VITALNAP                                                                                                                                                                                                                                                                                                                                                                                                                     
20000426361079215483904151211000000000010000014036CONTINENTE BOM DIA BENFICA                            102000000000000000000000000000001636107921548390400000999900000000000000000000000999900000000000000000000000000000000000000000000000000000000000000000   1858909999975                                                                                                                                                                                         
300004263610792154839041512CONTINENTE BOM DIA BENFICA                                                                                                                  RUA OLIVERIO SERPA                                                                                                                          LISBOA                             1500-471LISBOA                                  620                                                              
4000042636107921548390415121858909999975  VITALNAP                                                                                                                                                                                                                                                                                                                                                                                                                     
20000436361079215483912151211000000000010000014036CONTINENTE BOM DIA BENFICA                            102000000000000000000000000000001636107921548391400000999900000000000000000000000999900000000000000000000000000000000000000000000000000000000000000000   1858909999982                                                                                                                                                                                         
300004363610792154839121512CONTINENTE BOM DIA BENFICA                                                                                                                  RUA OLIVERIO SERPA                                                                                                                          LISBOA                             1500-471LISBOA                                  620                                                              
4000043636107921548391215121858909999982  VITALNAP                                                                                                                                                                                                                                                                                                                                                                                                                     
20000446361079215483920151211000000000010000014036CONTINENTE BOM DIA BENFICA                            102000000000000000000000000000001636107921548392400000999900000000000000000000000999900000000000000000000000000000000000000000000000000000000000000000   1858909999999                                                                                                                                                                                         
300004463610792154839201512CONTINENTE BOM DIA BENFICA                                                                                                                  RUA OLIVERIO SERPA                                                                                                                          LISBOA                             1500-471LISBOA                                  620                                                              
4000044636107921548392015121858909999999  VITALNAP                                                                                                                                                                                                                                                                                                                                                                                                                     
20000456361079215483938151211000000000010000014036CONTINENTE BOM DIA BENFICA                            102000000000000000000000000000001636107921548393400000999900000000000000000000000999900000000000000000000000000000000000000000000000000000000000000000   1858910000004                                                                                                                                                                                         
300004563610792154839381512CONTINENTE BOM DIA BENFICA                                                                                                                  RUA OLIVERIO SERPA                                                                                                                          LISBOA                             1500-471LISBOA                                  620                                                              
4000045636107921548393815121858910000004  VITALNAP                                                                                                                                                                                                                                                                                                                                                                                                                     
20000466361079215483946151211000000000010000014036CONTINENTE BOM DIA BENFICA                            102000000000000000000000000000001636107921548394400000999900000000000000000000000999900000000000000000000000000000000000000000000000000000000000000000   1858910000011                                                                                                                                                                                         
300004663610792154839461512CONTINENTE BOM DIA BENFICA                                                                                                                  RUA OLIVERIO SERPA                                                                                                                          LISBOA                             1500-471LISBOA                                  620                                                              
4000046636107921548394615121858910000011  VITALNAP                                                                                                                                                                                                                                                                                                                                                                                                                     
20000476361079215483953151211000000000010000014036CONTINENTE BOM DIA BENFICA                            102000000000000000000000000000001636107921548395400000999900000000000000000000000999900000000000000000000000000000000000000000000000000000000000000000   1858910000028                                                                                                                                                                                         
300004763610792154839531512CONTINENTE BOM DIA BENFICA                                                                                                                  RUA OLIVERIO SERPA                                                                                                                          LISBOA                             1500-471LISBOA                                  620                                                              
4000047636107921548395315121858910000028  VITALNAP                                                                                                                                                                                                                                                                                                                                                                                                                     
20000486361079215483961151211000000000010000014036CONTINENTE BOM DIA BENFICA                            102000000000000000000000000000001636107921548396400000999900000000000000000000000999900000000000000000000000000000000000000000000000000000000000000000   1858910000035                                                                                                                                                                                         
300004863610792154839611512CONTINENTE BOM DIA BENFICA                                                                                                                  RUA OLIVERIO SERPA                                                                                                                          LISBOA                             1500-471LISBOA                                  620                                                              
4000048636107921548396115121858910000035  VITALNAP                                                                                                                                                                                                                                                                                                                                                                                                                     
20000496361079215483979151211000000000010000014036CONTINENTE BOM DIA BENFICA                            102000000000000000000000000000001636107921548397400000999900000000000000000000000999900000000000000000000000000000000000000000000000000000000000000000   1858910000042                                                                                                                                                                                         
300004963610792154839791512CONTINENTE BOM DIA BENFICA                                                                                                                  RUA OLIVERIO SERPA                                                                                                                          LISBOA                             1500-471LISBOA                                  620                                                              
4000049636107921548397915121858910000042  VITALNAP                                                                                                                                                                                                                                                                                                                                                                                                                     
20000506361079215483987151211000000000010000014036CONTINENTE BOM DIA BENFICA                            102000000000000000000000000000001636107921548398400000999900000000000000000000000999900000000000000000000000000000000000000000000000000000000000000000   1858910000059                                                                                                                                                                                         
300005063610792154839871512CONTINENTE BOM DIA BENFICA                                                                                                                  RUA OLIVERIO SERPA                                                                                                                          LISBOA                             1500-471LISBOA                                  620                                                              
4000050636107921548398715121858910000059  VITALNAP                                                                                                                                                                                                                                                                                                                                                                                                                     
20000516361079215483995151211000000000010000014036CONTINENTE BOM DIA BENFICA                            102000000000000000000000000000001636107921548399400000999900000000000000000000000999900000000000000000000000000000000000000000000000000000000000000000   1858910000066                                                                                                                                                                                         
300005163610792154839951512CONTINENTE BOM DIA BENFICA                                                                                                                  RUA OLIVERIO SERPA                                                                                                                          LISBOA                             1500-471LISBOA                                  620                                                              
4000051636107921548399515121858910000066  VITALNAP                                                                                                                                                                                                                                                                                                                                                                                                                     
20000526361079215484001151211000000000010000014036CONTINENTE BOM DIA BENFICA                            102000000000000000000000000000001636107921548400400000999900000000000000000000000999900000000000000000000000000000000000000000000000000000000000000000   1858910000073                                                                                                                                                                                         
300005263610792154840011512CONTINENTE BOM DIA BENFICA                                                                                                                  RUA OLIVERIO SERPA                                                                                                                          LISBOA                             1500-471LISBOA                                  620                                                              
4000052636107921548400115121858910000073  VITALNAP                                                                                                                                                                                                                                                                                                                                                                                                                     
20000536361079215484019151211000000000010000014036CONTINENTE BOM DIA BENFICA                            102000000000000000000000000000001636107921548401400000999900000000000000000000000999900000000000000000000000000000000000000000000000000000000000000000   1858910000080                                                                                                                                                                                         
300005363610792154840191512CONTINENTE BOM DIA BENFICA                                                                                                                  RUA OLIVERIO SERPA                                                                                                                          LISBOA                             1500-471LISBOA                                  620                                                              
4000053636107921548401915121858910000080  VITALNAP                                                                                                                                                                                                                                                                                                                                                                                                                     
20000546361079215484027151211000000000010000014036CONTINENTE BOM DIA BENFICA                            102000000000000000000000000000001636107921548402400000999900000000000000000000000999900000000000000000000000000000000000000000000000000000000000000000   1858910000097                                                                                                                                                                                         
300005463610792154840271512CONTINENTE BOM DIA BENFICA                                                                                                                  RUA OLIVERIO SERPA                                                                                                                          LISBOA                             1500-471LISBOA                                  620                                                              
4000054636107921548402715121858910000097  VITALNAP                                                                                                                                                                                                                                                                                                                                                                                                                     
20000556361079215484035151211000000000010000014036CONTINENTE BOM DIA BENFICA                            102000000000000000000000000000001636107921548403400000999900000000000000000000000999900000000000000000000000000000000000000000000000000000000000000000   1858910000103                                                                                                                                                                                         
300005563610792154840351512CONTINENTE BOM DIA BENFICA                                                                                                                  RUA OLIVERIO SERPA                                                                                                                          LISBOA                             1500-471LISBOA                                  620                                                              
4000055636107921548403515121858910000103  VITALNAP                                                                                                                                                                                                                                                                                                                                                                                                                     
20000566361079215484043151211000000000010000014036CONTINENTE BOM DIA BENFICA                            102000000000000000000000000000001636107921548404400000999900000000000000000000000999900000000000000000000000000000000000000000000000000000000000000000   1858910000110                                                                                                                                                                                         
300005663610792154840431512CONTINENTE BOM DIA BENFICA                                                                                                                  RUA OLIVERIO SERPA                                                                                                                          LISBOA                             1500-471LISBOA                                  620                                                              
4000056636107921548404315121858910000110  VITALNAP                                                                                                                                                                                                                                                                                                                                                                                                                     
20000576361079215484050151211000000000010000014036CONTINENTE BOM DIA BENFICA                            102000000000000000000000000000001636107921548405400000999900000000000000000000000999900000000000000000000000000000000000000000000000000000000000000000   1858910000127                                                                                                                                                                                         
300005763610792154840501512CONTINENTE BOM DIA BENFICA                                                                                                                  RUA OLIVERIO SERPA                                                                                                                          LISBOA                             1500-471LISBOA                                  620                                                              
4000057636107921548405015121858910000127  VITALNAP                                                                                                                                                                                                                                                                                                                                                                                                                     
20000586361079215484068151211000000000010000014036CONTINENTE BOM DIA BENFICA                            102000000000000000000000000000001636107921548406400000999900000000000000000000000999900000000000000000000000000000000000000000000000000000000000000000   1858910000134                                                                                                                                                                                         
300005863610792154840681512CONTINENTE BOM DIA BENFICA                                                                                                                  RUA OLIVERIO SERPA                                                                                                                          LISBOA                             1500-471LISBOA                                  620                                                              
4000058636107921548406815121858910000134  VITALNAP                                                                                                                                                                                                                                                                                                                                                                                                                     
20000596361079215484076151211000000000010000014036CONTINENTE BOM DIA BENFICA                            102000000000000000000000000000001636107921548407400000999900000000000000000000000999900000000000000000000000000000000000000000000000000000000000000000   1858910000141                                                                                                                                                                                         
300005963610792154840761512CONTINENTE BOM DIA BENFICA                                                                                                                  RUA OLIVERIO SERPA                                                                                                                          LISBOA                             1500-471LISBOA                                  620                                                              
4000059636107921548407615121858910000141  VITALNAP                                                                                                                                                                                                                                                                                                                                                                                                                     
20000606361079215484084151211000000000010000014036CONTINENTE BOM DIA BENFICA                            102000000000000000000000000000001636107921548408400000999900000000000000000000000999900000000000000000000000000000000000000000000000000000000000000000   1858910000158                                                                                                                                                                                         
300006063610792154840841512CONTINENTE BOM DIA BENFICA                                                                                                                  RUA OLIVERIO SERPA                                                                                                                          LISBOA                             1500-471LISBOA                                  620                                                              
4000060636107921548408415121858910000158  VITALNAP                                                                                                                                                                                                                                                                                                                                                                                                                     
900000061000000000000000000000000000000000                                                                                                                                                                                                                                                                                                                                                                                                                             
0MELCB0008481201402050032014020500297862000000000                                                                                                                                                                                                                                                                                                                                                                                                                      
150402179100033  N001        202369010102                                                      00000000000000000000000000000000000                                                                                                                                                                                                                                                                                                                                     
20000815040217900018434151211000000000010000014036FNAC COLOMBO                                          102000000000000000000000000000001504021790001843400000999900000000000000000000000999900000000000000000000000000000000000000000000000000000000000000000   03001212                                                                                                                                                                                              
300008150402179000184341512FNAC COLOMBO                                                                                                                                AV LUSIADA CC COLOMBO                                                                                                                       LISBOA                             1500-392LISBOA                                  620                                                              
40000815040217900018434151200000000300121203001212                                                                                                                                                                                                                                                                                                                                                                                                                     
20000825040217900018442151211000000000010000014036FNAC COLOMBO                                          102000000000000000000000000000001504021790001844400000999900000000000000000000000999900000000000000000000000000000000000000000000000000000000000000000   03001213                                                                                                                                                                                              
300008250402179000184421512FNAC COLOMBO                                                                                                                                AV LUSIADA CC COLOMBO                                                                                                                       LISBOA                             1500-392LISBOA                                  620                                                              
40000825040217900018442151200000000300121303001213                                                                                                                                                                                                                                                                                                                                                                                                                     
20000835040217900018459151211000000000010000014036FNAC COLOMBO                                          102000000000000000000000000000001504021790001845400000999900000000000000000000000999900000000000000000000000000000000000000000000000000000000000000000   03001214                                                                                                                                                                                              
300008350402179000184591512FNAC COLOMBO                                                                                                                                AV LUSIADA CC COLOMBO                                                                                                                       LISBOA                             1500-392LISBOA                                  620                                                              
40000835040217900018459151200000000300121403001214                                                                                                                                                                                                                                                                                                                                                                                                                     
20000845040217900018467151211000000000010000014036FNAC COLOMBO                                          102000000000000000000000000000001504021790001846400000999900000000000000000000000999900000000000000000000000000000000000000000000000000000000000000000   03001215                                                                                                                                                                                              
300008450402179000184671512FNAC COLOMBO                                                                                                                                AV LUSIADA CC COLOMBO                                                                                                                       LISBOA                             1500-392LISBOA                                  620                                                              
40000845040217900018467151200000000300121503001215                                                                                                                                                                                                                                                                                                                                                                                                                     
20000855040217900018475151211000000000010000014036FNAC COLOMBO                                          102000000000000000000000000000001504021790001847400000999900000000000000000000000999900000000000000000000000000000000000000000000000000000000000000000   03001216                                                                                                                                                                                              
300008550402179000184751512FNAC COLOMBO                                                                                                                                AV LUSIADA CC COLOMBO                                                                                                                       LISBOA                             1500-392LISBOA                                  620                                                              
40000855040217900018475151200000000300121603001216                                                                                                                                                                                                                                                                                                                                                                                                                     
20000865040217900018483151211000000000010000014036FNAC COLOMBO                                          102000000000000000000000000000001504021790001848400000999900000000000000000000000999900000000000000000000000000000000000000000000000000000000000000000   03001217                                                                                                                                                                                              
300008650402179000184831512FNAC COLOMBO                                                                                                                                AV LUSIADA CC COLOMBO                                                                                                                       LISBOA                             1500-392LISBOA                                  620                                                              
40000865040217900018483151200000000300121703001217                                                                                                                                                                                                                                                                                                                                                                                                                     
20000875040217900018491151211000000000010000014036FNAC COLOMBO                                          102000000000000000000000000000001504021790001849400000999900000000000000000000000999900000000000000000000000000000000000000000000000000000000000000000   03001218                                                                                                                                                                                              
300008750402179000184911512FNAC COLOMBO                                                                                                                                AV LUSIADA CC COLOMBO                                                                                                                       LISBOA                             1500-392LISBOA                                  620                                                              
40000875040217900018491151200000000300121803001218                                                                                                                                                                                                                                                                                                                                                                                                                     
20000885040217900018509151211000000000010000014036FNAC COLOMBO                                          102000000000000000000000000000001504021790001850400000999900000000000000000000000999900000000000000000000000000000000000000000000000000000000000000000   03001219                                                                                                                                                                                              
300008850402179000185091512FNAC COLOMBO                                                                                                                                AV LUSIADA CC COLOMBO                                                                                                                       LISBOA                             1500-392LISBOA                                  620                                                              
40000885040217900018509151200000000300121903001219                                                                                                                                                                                                                                                                                                                                                                                                                     
20000895040217900018517151211000000000010000014036FNAC COLOMBO                                          102000000000000000000000000000001504021790001851400000999900000000000000000000000999900000000000000000000000000000000000000000000000000000000000000000   03001220                                                                                                                                                                                              
300008950402179000185171512FNAC COLOMBO                                                                                                                                AV LUSIADA CC COLOMBO                                                                                                                       LISBOA                             1500-392LISBOA                                  620                                                              
40000895040217900018517151200000000300122003001220                                                                                                                                                                                                                                                                                                                                                                                                                     
20000905040217900018525151211000000000010000014036FNAC COLOMBO                                          102000000000000000000000000000001504021790001852400000999900000000000000000000000999900000000000000000000000000000000000000000000000000000000000000000   03001221                                                                                                                                                                                              
300009050402179000185251512FNAC COLOMBO                                                                                                                                AV LUSIADA CC COLOMBO                                                                                                                       LISBOA                             1500-392LISBOA                                  620                                                              
40000905040217900018525151200000000300122103001221                                                                                                                                                                                                                                                                                                                                                                                                                     
20000915040217900018533151211000000000010000014036FNAC COLOMBO                                          102000000000000000000000000000001504021790001853400000999900000000000000000000000999900000000000000000000000000000000000000000000000000000000000000000   03001222                                                                                                                                                                                              
300009150402179000185331512FNAC COLOMBO                                                                                                                                AV LUSIADA CC COLOMBO                                                                                                                       LISBOA                             1500-392LISBOA                                  620                                                              
40000915040217900018533151200000000300122203001222                                                                                                                                                                                                                                                                                                                                                                                                                     
20000925040217900018541151211000000000010000014036FNAC COLOMBO                                          102000000000000000000000000000001504021790001854400000999900000000000000000000000999900000000000000000000000000000000000000000000000000000000000000000   03001223                                                                                                                                                                                              
300009250402179000185411512FNAC COLOMBO                                                                                                                                AV LUSIADA CC COLOMBO                                                                                                                       LISBOA                             1500-392LISBOA                                  620                                                              
40000925040217900018541151200000000300122303001223                                                                                                                                                                                                                                                                                                                                                                                                                     
20000935040217900018558151211000000000010000014036FNAC COLOMBO                                          102000000000000000000000000000001504021790001855400000999900000000000000000000000999900000000000000000000000000000000000000000000000000000000000000000   03001224                                                                                                                                                                                              
300009350402179000185581512FNAC COLOMBO                                                                                                                                AV LUSIADA CC COLOMBO                                                                                                                       LISBOA                             1500-392LISBOA                                  620                                                              
40000935040217900018558151200000000300122403001224                                                                                                                                                                                                                                                                                                                                                                                                                     
20000945040217900018566151211000000000010000014036FNAC COLOMBO                                          102000000000000000000000000000001504021790001856400000999900000000000000000000000999900000000000000000000000000000000000000000000000000000000000000000   03001225                                                                                                                                                                                              
300009450402179000185661512FNAC COLOMBO                                                                                                                                AV LUSIADA CC COLOMBO                                                                                                                       LISBOA                             1500-392LISBOA                                  620                                                              
40000945040217900018566151200000000300122503001225                                                                                                                                                                                                                                                                                                                                                                                                                     
20000955040217900018574151211000000000010000014036FNAC COLOMBO                                          102000000000000000000000000000001504021790001857400000999900000000000000000000000999900000000000000000000000000000000000000000000000000000000000000000   03001226                                                                                                                                                                                              
300009550402179000185741512FNAC COLOMBO                                                                                                                                AV LUSIADA CC COLOMBO                                                                                                                       LISBOA                             1500-392LISBOA                                  620                                                              
40000955040217900018574151200000000300122603001226                                                                                                                                                                                                                                                                                                                                                                                                                     
20000965040217900018582151211000000000010000014036FNAC COLOMBO                                          102000000000000000000000000000001504021790001858400000999900000000000000000000000999900000000000000000000000000000000000000000000000000000000000000000   03001227                                                                                                                                                                                              
300009650402179000185821512FNAC COLOMBO                                                                                                                                AV LUSIADA CC COLOMBO                                                                                                                       LISBOA                             1500-392LISBOA                                  620                                                              
40000965040217900018582151200000000300122703001227                                                                                                                                                                                                                                                                                                                                                                                                                     
20000975040217900018590151211000000000010000014036FNAC COLOMBO                                          102000000000000000000000000000001504021790001859400000999900000000000000000000000999900000000000000000000000000000000000000000000000000000000000000000   03001228                                                                                                                                                                                              
300009750402179000185901512FNAC COLOMBO                                                                                                                                AV LUSIADA CC COLOMBO                                                                                                                       LISBOA                             1500-392LISBOA                                  620                                                              
40000975040217900018590151200000000300122803001228                                                                                                                                                                                                                                                                                                                                                                                                                     
20000985040217900018608151211000000000010000014036FNAC COLOMBO                                          102000000000000000000000000000001504021790001860400000999900000000000000000000000999900000000000000000000000000000000000000000000000000000000000000000   03001229                                                                                                                                                                                              
300009850402179000186081512FNAC COLOMBO                                                                                                                                AV LUSIADA CC COLOMBO                                                                                                                       LISBOA                             1500-392LISBOA                                  620                                                              
40000985040217900018608151200000000300122903001229                                                                                                                                                                                                                                                                                                                                                                                                                     
20000995040217900018616151211000000000010000014036FNAC COLOMBO                                          102000000000000000000000000000001504021790001861400000999900000000000000000000000999900000000000000000000000000000000000000000000000000000000000000000   03001230                                                                                                                                                                                              
300009950402179000186161512FNAC COLOMBO                                                                                                                                AV LUSIADA CC COLOMBO                                                                                                                       LISBOA                             1500-392LISBOA                                  620                                                              
40000995040217900018616151200000000300123003001230                                                                                                                                                                                                                                                                                                                                                                                                                     
20001005040217900018624151211000000000010000014036FNAC COLOMBO                                          102000000000000000000000000000001504021790001862400000999900000000000000000000000999900000000000000000000000000000000000000000000000000000000000000000   03001231                                                                                                                                                                                              
300010050402179000186241512FNAC COLOMBO                                                                                                                                AV LUSIADA CC COLOMBO                                                                                                                       LISBOA                             1500-392LISBOA                                  620                                                              
40001005040217900018624151200000000300123103001231                                                                                                                                                                                                                                                                                                                                                                                                                     
900000061000000000000000000000000000000000                                                                                                                                                                                                                                                                                                                                                                                                                             
0MELCB0008481201402050042014020500397862000000000                                                                                                                                                                                                                                                                                                                                                                                                                      
150402199100033  N001        202835010102                                                      00000000000000000000000000000000000                                                                                                                                                                                                                                                                                                                                     
20001215040219900085157151211000000000010000014036IKEA ALFRAGIDE                                        102000000000000000000000000000001504021990008515400000999900000000000000000000000999900000000000000000000000000000000000000000000000000000000000000000                                                                                                                                                                                                         
300012150402199000851571512IKEA ALFRAGIDE                                                                                                                              ZONA INDUSTRIAL DE ALFRAGIDE                                                                                                                AMADORA                            2700-000AMADORA                                 620                                                              
20001225040219900085165151211000000000010000014036IKEA ALFRAGIDE                                        102000000000000000000000000000001504021990008516400000999900000000000000000000000999900000000000000000000000000000000000000000000000000000000000000000                                                                                                                                                                                                         
300012250402199000851651512IKEA ALFRAGIDE                                                                                                                              ZONA INDUSTRIAL DE ALFRAGIDE                                                                                                                AMADORA                            2700-000AMADORA                                 620                                                              
20001235040219900085173151211000000000010000014036IKEA ALFRAGIDE                                        102000000000000000000000000000001504021990008517400000999900000000000000000000000999900000000000000000000000000000000000000000000000000000000000000000                                                                                                                                                                                                         
300012350402199000851731512IKEA ALFRAGIDE                                                                                                                              ZONA INDUSTRIAL DE ALFRAGIDE                                                                                                                AMADORA                            2700-000AMADORA                                 620                                                              
20001245040219900085181151211000000000010000014036IKEA ALFRAGIDE                                        102000000000000000000000000000001504021990008518400000999900000000000000000000000999900000000000000000000000000000000000000000000000000000000000000000                                                                                                                                                                                                         
300012450402199000851811512IKEA ALFRAGIDE                                                                                                                              ZONA INDUSTRIAL DE ALFRAGIDE                                                                                                                AMADORA                            2700-000AMADORA                                 620                                                              
20001255040219900085199151211000000000010000014036IKEA ALFRAGIDE                                        102000000000000000000000000000001504021990008519400000999900000000000000000000000999900000000000000000000000000000000000000000000000000000000000000000                                                                                                                                                                                                         
300012550402199000851991512IKEA ALFRAGIDE                                                                                                                              ZONA INDUSTRIAL DE ALFRAGIDE                                                                                                                AMADORA                            2700-000AMADORA                                 620                                                              
20001265040219900085207151211000000000010000014036IKEA ALFRAGIDE                                        102000000000000000000000000000001504021990008520400000999900000000000000000000000999900000000000000000000000000000000000000000000000000000000000000000                                                                                                                                                                                                         
300012650402199000852071512IKEA ALFRAGIDE                                                                                                                              ZONA INDUSTRIAL DE ALFRAGIDE                                                                                                                AMADORA                            2700-000AMADORA                                 620                                                              
20001275040219900085215151211000000000010000014036IKEA ALFRAGIDE                                        102000000000000000000000000000001504021990008521400000999900000000000000000000000999900000000000000000000000000000000000000000000000000000000000000000                                                                                                                                                                                                         
300012750402199000852151512IKEA ALFRAGIDE                                                                                                                              ZONA INDUSTRIAL DE ALFRAGIDE                                                                                                                AMADORA                            2700-000AMADORA                                 620                                                              
20001285040219900085223151211000000000010000014036IKEA ALFRAGIDE                                        102000000000000000000000000000001504021990008522400000999900000000000000000000000999900000000000000000000000000000000000000000000000000000000000000000                                                                                                                                                                                                         
300012850402199000852231512IKEA ALFRAGIDE                                                                                                                              ZONA INDUSTRIAL DE ALFRAGIDE                                                                                                                AMADORA                            2700-000AMADORA                                 620                                                              
20001295040219900085231151211000000000010000014036IKEA ALFRAGIDE                                        102000000000000000000000000000001504021990008523400000999900000000000000000000000999900000000000000000000000000000000000000000000000000000000000000000                                                                                                                                                                                                         
300012950402199000852311512IKEA ALFRAGIDE                                                                                                                              ZONA INDUSTRIAL DE ALFRAGIDE                                                                                                                AMADORA                            2700-000AMADORA                                 620                                                              
20001305040219900085249151211000000000010000014036IKEA ALFRAGIDE                                        102000000000000000000000000000001504021990008524400000999900000000000000000000000999900000000000000000000000000000000000000000000000000000000000000000                                                                                                                                                                                                         
300013050402199000852491512IKEA ALFRAGIDE                                                                                                                              ZONA INDUSTRIAL DE ALFRAGIDE                                                                                                                AMADORA                            2700-000AMADORA                                 620                                                              
20001315040219900085256151211000000000010000014036IKEA ALFRAGIDE                                        102000000000000000000000000000001504021990008525400000999900000000000000000000000999900000000000000000000000000000000000000000000000000000000000000000                                                                                                                                                                                                         
300013150402199000852561512IKEA ALFRAGIDE                                                                                                                              ZONA INDUSTRIAL DE ALFRAGIDE                                                                                                                AMADORA                            2700-000AMADORA                                 620                                                              
20001325040219900085264151211000000000010000014036IKEA ALFRAGIDE                                        102000000000000000000000000000001504021990008526400000999900000000000000000000000999900000000000000000000000000000000000000000000000000000000000000000                                                                                                                                                                                                         
300013250402199000852641512IKEA ALFRAGIDE                                                                                                                              ZONA INDUSTRIAL DE ALFRAGIDE                                                                                                                AMADORA                            2700-000AMADORA                                 620                                                              
20001335040219900085272151211000000000010000014036IKEA ALFRAGIDE                                        102000000000000000000000000000001504021990008527400000999900000000000000000000000999900000000000000000000000000000000000000000000000000000000000000000                                                                                                                                                                                                         
300013350402199000852721512IKEA ALFRAGIDE                                                                                                                              ZONA INDUSTRIAL DE ALFRAGIDE                                                                                                                AMADORA                            2700-000AMADORA                                 620                                                              
20001345040219900085280151211000000000010000014036IKEA ALFRAGIDE                                        102000000000000000000000000000001504021990008528400000999900000000000000000000000999900000000000000000000000000000000000000000000000000000000000000000                                                                                                                                                                                                         
300013450402199000852801512IKEA ALFRAGIDE                                                                                                                              ZONA INDUSTRIAL DE ALFRAGIDE                                                                                                                AMADORA                            2700-000AMADORA                                 620                                                              
