0MELCB0008481201402070062014020700597862000000000                                                                                                                                                                                                                                                                                                                                                                                                                      
152806900111034D N001        202213010101                                                      00200100300000000000000000000000000                                                                                                                                                                                                                                                                                                                                     
20000045280690000307890160211000000000010000014038//CARLA MARIA TERROSO                                 102999999999000000000000000000001042069800311100400000999900000000000000000000000999900000000000000000000000000000000000000000000000000000000000000000101             WHITE                          1625 2000,00 EUROS     C0000N                                                                                                                             
300000452806900003078901602CARLA MARIA GAVINA TERROSO                                                                                                                  R VIRIATO BARBOSA 875 RC DT TRAS                                                                                                            POVOA DO VARZIM                    4490-000POVOA DE VARZIM                         620                                                              
20000145280690000307973160211000000000010000014038//FERNANDO MANUEL LOPES                               102999999999000000000000000000001042556720001100400000999900000000000000000000000999900000000000000000000000000000000000000000000000000000000000000000101             WHITE                           500 2000,00 EUROS     C0000X                                                                                                                             
300001452806900003079731602FERNANDO MANUEL ALVES LOPES                                                                                                                 R JOSE DELFIM DE OLIVEIRA 1                                                                                                                 PENELA                             3230-285PENELA                                  620                                                              
20000155280690000307981160211000000000010000014038//MANUEL ANDRADE                                      102999999999000000000000000000001042562673961100400000999900000000000000000000000999900000000000000000000000000000000000000000000000000000000000000000101             WHITE                           750 2000,00 EUROS     C0000Y                                                                                                                             
300001552806900003079811602MANUEL CARLOS FERREIRA DE ANDRADE                                                                                                           RUA DR EGIDIO GUIMARAES N8 6ESQ                                                                                                             BRAGA                              4715-248BRAGA                                   620                                                              
20000165280690000307999160211000000000010000014038//HUGO ALEXANDRE LOPES                                102999999999000000000000000000001042569376911100400000999900000000000000000000000999900000000000000000000000000000000000000000000000000000000000000000101             WHITE                           750 2000,00 EUROS     C0000Z                                                                                                                             
300001652806900003079991602HUGO ALEXANDRE FERNANDES LOPES                                                                                                              AV PAULO VI N 2 6 D                                                                                                                         LISBOA                             1950-229LISBOA                                  620                                                              
20000205280690000308021160211000000000010000014038//JOSE DUARTE PIMENTEL                                102999999999000000000000000000001042580209421100400000999900000000000000000000000999900000000000000000000000000000000000000000000000000000000000000000101             WHITE                           750 2000,00 EUROS     C00013                                                                                                                             
300002052806900003080211602JOSE DUARTE FARIA PIMENTEL                                                                                                                  R DIREITA JOAO BOM 30                                                 JOAO BOM                                                              BRETANHA                           9545-000BRETANHA                                620                                                              
900000011000000000000000000000000000000000                                                                                                                                                                                                                                                                                                                                                                                                                             
0MELCB0008481201402070072014020700697862000000000                                                                                                                                                                                                                                                                                                                                                                                                                      
152806900111034D N001        202214010101                                                      00200100300000000000000000000000000                                                                                                                                                                                                                                                                                                                                     
20000235280690000308039160211000000000010000014038//ROSADA MENEZES                                      102999999999000000000000000000001042629645981100400000999900000000000000000000000999900000000000000000000000000000000000000000000000000000000000000000101             GREEN                           500 3000,00 EUROS     C00016                                                                                                                             
300002352806900003080391602ROSADA ESLINDA MARCELIA DA CRUZ E SOUSA MENEZES                                                                                             R 1 LT 10 5 A-CIDADE SOL                                                                                                                    SANTO ANTONIO DA CHARNECA          2835-503SANTO ANTONIO DA CHARNECA               620                                                              
20000385280690000308146160211000000000010000014038//BRUNO PAULO CARDOSO                                 102999999999000000000000000000001042743483681200400000999900000000000000000000000999900000000000000000000000000000000000000000000000000000000000000000101             GREEN                          1750 3000,00 EUROS     C0001L                                                                                                                             
300003852806900003081461602BRUNO PAULO DE MELIM CARDOSO                                                                                                                RUA POMBAL 16 3 ESQ                                                                                                                         MONTE DE CAPARICA                  2825-097CAPARICA                                620                                                              
900000005000000000000000000000000000000000                                                                                                                                                                                                                                                                                                                                                                                                                             
0MELCB0008481201402070082014020700797862000000000                                                                                                                                                                                                                                                                                                                                                                                                                      
152806900111034D N001        202215010101                                                      00200100300000000000000000000000000                                                                                                                                                                                                                                                                                                                                     
20000425280690000308179170211000000000010000014038//MARIA VIEIRA                                        102999999999000000000000000000001042794573131200400000999900000000000000000000000999900000000000000000000000000000000000000000000000000000000000000000101             BLACK                          1000 4000,00 EUROS     C0001P                                                                                                                             
300004252806900003081791702MARIA LUISA DA GLORIA VIEIRA                                                                                                                BAIRRO SAO JOAO DEUS                                                  9                                                                     VILA NOVA BARQUINHA                2260-401VILA NOVA BARQUINHA                     620                                                              
900000003000000000000000000000000000000000                                                                                                                                                                                                                                                                                                                                                                                                                             
0MELCB0008481201402070092014020700897862000000000                                                                                                                                                                                                                                                                                                                                                                                                                      
152806900111034D N001        202227010101                                                      00200100300000000000000000000000000                                                                                                                                                                                                                                                                                                                                     
20000085280690000307916170211000000000010000014038//ALEXANDRE OLIVEIRA                                  102999999999000000000000000000001042515457709200400000999900000000000000000000000999900000000000000000000000000000000000000000000000000000000000000000106             CREDIAL                         500                   C0000R                                                                                                                             
300000852806900003079161702ALEXANDRE JOSE AZEVEDO OLIVEIRA                                                                                                             R ALTO DOS FRADES NR 57                                                                                                                     SANTA MARIA OLIVEIRA               4765-327SANTA MARIA OLIVEIRA                    620                                                              
20000185280690000308005170211000000000010000014038//FRANCISCO ROSA                                      102999999999000000000000000000001042576015029300400000999900000000000000000000000999900000000000000000000000000000000000000000000000000000000000000000106             CREDIAL                         500                   C00011                                                                                                                             
300001852806900003080051702FRANCISCO GONCALVES DOS SANTOS ROSA                                                                                                         RUA CIDADE DA BEIRA N81 3J                                                                                                                  LISBOA                             1800-065LISBOA                                  620                                                              
20000195280690000308013170211000000000010000014038//MARCO SIMOES                                        102999999999000000000000000000001042576533889300400000999900000000000000000000000999900000000000000000000000000000000000000000000000000000000000000000106             CREDIAL                        1000                   C00012                                                                                                                             
300001952806900003080131702MARCO ANDRE SILVA SIMOES                                                                                                                    R DR ARMANDO CORTESAO N 39                                                                                                                  SAO JOAO DO CAMPO                  3025-416SAO JOAO DO CAMPO                       620                                                              
20000265280690000308062170211000000000010000014038//FRANCISCO FERNANDES                                 102999999999000000000000000000001042671621649100400000999900000000000000000000000999900000000000000000000000000000000000000000000000000000000000000000106             CREDIAL                        2250                   C00019                                                                                                                             
300002652806900003080621702FRANCISCO JOSE MARQUES FERNANDES                                                                                                            RUA DIREITA 261                                                                                                                             ARADAS-AVEIRO                      3810-006AVEIRO                                  620                                                              
20000355280690000308112170211000000000010000014038//MARIA CONCEICAO                                     102999999999000000000000000000001042731417239100400000999900000000000000000000000999900000000000000000000000000000000000000000000000000000000000000000106             CREDIAL                        1000                   C0001I                                                                                                                             
300003552806900003081121702MARIA LURDES TEIXEIRA SOUSA CONCEICAO                                                                                                       RUA PARTICULAR FRANCOS 217                                            CASA 4                                                                PORTO                              4100-378PORTO                                   620                                                              
900000011000000000000000000000000000000000                                                                                                                                                                                                                                                                                                                                                                                                                             
0MELCB0008481201402070102014020700997862000000000                                                                                                                                                                                                                                                                                                                                                                                                                      
152806900111034D N001        202228010101                                                      00200100300000000000000000000000000                                                                                                                                                                                                                                                                                                                                     
20000095280690000307924170211000000000010000014038//HELENA NETO                                         102999999999000000000000000000001042517081211300400000999900000000000000000000000999900000000000000000000000000000000000000000000000000000000000000000105             IKEA                            900                   C0000S                                                                                                                             
300000952806900003079241702HELENA MARIA PROENCA DE AZEVEDO NETO                                                                                                        RUA CONSTANCA CAPDEVILLE                                              N10 2 ESQ                                                             CAXIAS                             2760-194CAXIAS                                  620                                                              
20000125280690000307957170211000000000010000014038//RUI TOMAS                                           102999999999000000000000000000001042537507581200400000999900000000000000000000000999900000000000000000000000000000000000000000000000000000000000000000105             IKEA                            600                   C0000V                                                                                                                             
300001252806900003079571702RUI MIGUEL DOS SANTOS TOMAS                                                                                                                 RUA DA AMIZADE                                                        24 RC FRT                                                             LAVRADIO                           2835-802LAVRADIO                                620                                                              
20000245280690000308047170211000000000010000014038//JOSE TEIXEIRA                                       102999999999000000000000000000001042654521041100400000999900000000000000000000000999900000000000000000000000000000000000000000000000000000000000000000105             IKEA                            900                   C00017                                                                                                                             
300002452806900003080471702JOSE SANDRO NOIA TEIXEIRA                                                                                                                   R DOS BOMBEIROS VOLUNTARIOS                                           38 1DTO                                                               ALVERCA DO RIBATEJO                2615-052ALVERCA DO RIBATEJO                     620                                                              
20000255280690000308054170211000000000010000014038//BRUNO MACHADO                                       102999999999000000000000000000001042659610961200400000999900000000000000000000000999900000000000000000000000000000000000000000000000000000000000000000105             IKEA                            600                   C00018                                                                                                                             
300002552806900003080541702BRUNO FILIPE PEREIRA MACHADO                                                                                                                RUA CARLOS GIL                                                        LT647A 1ESQ                                                           LISBOA                             1950-432LISBOA                                  620                                                              
20000525280690000308203170211000000000010000014038//ANDRE SOUSA                                         102999999999000000000000000000001042803144461100400000999900000000000000000000000999900000000000000000000000000000000000000000000000000000000000000000105             IKEA                           1100                   C0001Z                                                                                                                             
300005252806900003082031702ANDRE ALEXANDRE RIBEIRO DE SOUSA                                                                                                            RUA DO VERAO                                                          92 BAJO 1                                                             PERAFITA                           4455-575PERAFITA                                620                                                              
900000011000000000000000000000000000000000                                                                                                                                                                                                                                                                                                                                                                                                                             
0MELCB0008481201402070112014020701097862000000000                                                                                                                                                                                                                                                                                                                                                                                                                      
152806900111034D N001        202229010101                                                      00200100300000000000000000000000000                                                                                                                                                                                                                                                                                                                                     
20000105280690000307932160211000000000010000014038//GEORGINA MARIA VIANA                                1029999999990000000000000000000010425217966011004000009999000000000000000000000009999000000000000000000000000000000000000000000000000000000000000000001050000837527   MOVIFLOR                        500                   C0000T                                                                                                                             
300001052806900003079321602GEORGINA MARIA FIGUEIREDO RODRIG VIANA                                                                                                      RUA DR MANUEL TENRREIRO CRUZ 163                                      3 DRT TRAZ                                                            TONDELA                            3460-000TONDELA                                 620                                                              
20000115280690000307940160211000000000010000014038//MARIA LUCINDA RIBEIRO                               1029999999990000000000000000000010425362048011004000009999000000000000000000000009999000000000000000000000000000000000000000000000000000000000000000001050000930587   MOVIFLOR                       1250                   C0000U                                                                                                                             
300001152806900003079401602MARIA LUCINDA BRANDAO RIBEIRO                                                                                                               LARGO DR CARLOS FRANCA 11 2 A                                                                                                               CARNAXIDE                          2790-005CARNAXIDE                               620                                                              
20000295280690000308096160211000000000010000014038//RAUL TEIXEIRA                                       1029999999990000000000000000000010426938847811004000009999000000000000000000000009999000000000000000000000000000000000000000000000000000000000000000001050002723736   MOVIFLOR                        300                   C0001C                                                                                                                             
300002952806900003080961602RAUL TEIXEIRA                                                                                                                               TRAVESSA LOMBO DO TERCO                                               7                                                                     CAMARA DE LOBOS                    9300-410CAMARA DE LOBOS                         620                                                              
20000365280690000308120160211000000000010000014038//ALDONIO SILVA                                       1029999999990000000000000000000010427387721912004000009999000000000000000000000009999000000000000000000000000000000000000000000000000000000000000000001050002654810   MOVIFLOR                        650                   C0001J                                                                                                                             
300003652806900003081201602ALDONIO GOUVEIA DA SILVA                                                                                                                    RUA DOM JOAO 8 A                                                      EDIFICIO MENESES 6  ANDAR                                             FUNCHAL                            9050-048FUNCHAL                                 620                                                              
20000375280690000308138160211000000000010000014038//CARINA CASTRO                                       1029999999990000000000000000000010427407458412004000009999000000000000000000000009999000000000000000000000000000000000000000000000000000000000000000001050002446663   MOVIFLOR                       1000                   C0001K                                                                                                                             
300003752806900003081381602CARINA FERREIRA CASTRO                                                                                                                      BECO DO POCO BARRAL                                                   N 3A                                                                  FUNCHAL                            9000-296FUNCHAL                                 620                                                              
900000011000000000000000000000000000000000                                                                                                                                                                                                                                                                                                                                                                                                                             
0MELCB0008481201402070122014020701197862000000000                                                                                                                                                                                                                                                                                                                                                                                                                      
152806900111034D N001        202230010101                                                      00200100300000000000000000000000000                                                                                                                                                                                                                                                                                                                                     
20000135280690000307965170211000000000010000014038//JOAO FERNANDO GOMES                                 102999999999000000000000000000001042542428963100400000999900000000000000000000000999900000000000000000000000000000000000000000000000000000000000000000105             CONFORAMA                      1000                   C0000W                                                                                                                             
300001352806900003079651702JOAO FERNANDO DE OLIVEIRA GOMES                                                                                                             R BOCAS  N 45                                                                                                                               SERZEDO VNG                        4410-077SERZEDO VNG                             620                                                              
20000275280690000308070170211000000000010000014038//CATIA SUSANA CHAVES                                 102999999999000000000000000000001042672597621100400000999900000000000000000000000999900000000000000000000000000000000000000000000000000000000000000000105             CONFORAMA                       600                   C0001A                                                                                                                             
300002752806900003080701702CATIA SUSANA CORREIA CHAVES                                                                                                                 CIDADE DE BRUXELAS N4 3ESQ                                                                                                                  AGUALVA CACEM                      2735-451AGUALVA-CACEM                           620                                                              
20000285280690000308088170211000000000010000014038//ANA PAULA SANTOS                                    102999999999000000000000000000001042685103871100400000999900000000000000000000000999900000000000000000000000000000000000000000000000000000000000000000105             CONFORAMA                      1350                   C0001B                                                                                                                             
300002852806900003080881702ANA PAULA DA SILVA SANTOS                                                                                                                   R PERPEN AV JOSE SANTOS FARIAS                                        LT 3 RC ESQ B                                                         ALMANCIL                           8135-153ALMANCIL                                620                                                              
20000305280690000308104170211000000000010000014038//MIRITA MARIA PIRES                                  102999999999000000000000000000001042695888201100400000999900000000000000000000000999900000000000000000000000000000000000000000000000000000000000000000105             CONFORAMA                      3000                   C0001D                                                                                                                             
300003052806900003081041702MIRITA MARIA DA ENCARNACAO CORREIA PIRES                                                                                                    RUA PALMEIRAL 148                                                     ALGOZ                                                                 ALGOZ                              8365-064ALGOZ                                   620                                                              
20000705280690000308294170211000000000010000014038//JOSE ALEXANDRE                                      102999999999000000000000000000001048034126021200400000999900000000000000000000000999900000000000000000000000000000000000000000000000000000000000000000105             CONFORAMA                      1600                   C0002H                                                                                                                             
300007052806900003082941702JOSE JOAQUIM HORTA ALEXANDRE                                                                                                                R DO MUNICIPIO N 31 3 ESQ                                                                                                                   BRANDOA                            2650-194AMADORA                                 620                                                              
900000011000000000000000000000000000000000                                                                                                                                                                                                                                                                                                                                                                                                                             
0MELCB0008481201402070132014020701297862000000000                                                                                                                                                                                                                                                                                                                                                                                                                      
152806900111034D N001        202231010101                                                      00200100300000000000000000000000000                                                                                                                                                                                                                                                                                                                                     
20000015280690000307882170211000000000010000014038//ENG CARLA PEREIRA                                   102999999999000000000000000000001042002523461300400000999900000000000000000000000999900000000000000000000000000000000000000000000000000000000000000000105             EURONICS                        750                   C0000K                                                                                                                             
300000152806900003078821702CARLA DIONE ARNAUD PEREIRA                                                                                                                  AV COMENDADOR FERREIRA MATOS                                          480 05                                                                MATOSINHOS                         4450-125MATOSINHOS                              620                                                              
20000395280690000308153170211000000000010000014038//JOSE AGUIAR                                         102999999999000000000000000000001042772878601200400000999900000000000000000000000999900000000000000000000000000000000000000000000000000000000000000000105             EURONICS                        350                   C0001M                                                                                                                             
300003952806900003081531702JOSE CARLOS NUNES DE AGUIAR                                                                                                                 TRAVESSA DO PILAR N  24                                               N  24                                                                 FUNCHAL                            9000-000FUNCHAL                                 620                                                              
20000575280690000308252170211000000000010000014038//AVELINO DE SOUSA LIMA                               102999999999000000000000000000001042803790191100400000999900000000000000000000000999900000000000000000000000000000000000000000000000000000000000000000105             EURONICS                        700                   C00024                                                                                                                             
300005752806900003082521702AVELINO DE SOUSA LIMA                                                                                                                       RUA ANTONIO SERGIO                                                    527                                                                   SANTO TIRSO                        4780-400SANTO TIRSO                             620                                                              
20000595280690000308278170211000000000010000014038//ANTONIO DIAS DA SILVA                               102999999999000000000000000000001042804152271100400000999900000000000000000000000999900000000000000000000000000000000000000000000000000000000000000000105             EURONICS                        350                   C00026                                                                                                                             
300005952806900003082781702ANTONIO DIAS DA SILVA                                                                                                                       RUA TENENTE LEONARDO MEIRELES                                         147 5 DRT                                                             PACOS DE FERREIRA                  4590-615PACOS DE FERREIRA                       620                                                              
900000009000000000000000000000000000000000                                                                                                                                                                                                                                                                                                                                                                                                                             
0MELCB0008481201402070142014020701397862000000000                                                                                                                                                                                                                                                                                                                                                                                                                      
152806900111034D N001        202232010101                                                      00200100300000000000000000000000000                                                                                                                                                                                                                                                                                                                                     
20000515280690000308195160211000000000010000014038//MANUEL JUNIOR                                       102999999999000000000000000000001042803135391100400000999900000000000000000000000999900000000000000000000000000000000000000000000000000000000000000000105             TIEN 21                         900                   C0001Y                                                                                                                             
300005152806900003081951602MANUEL DA SILVA OLIVEIRA JUNIOR                                                                                                             AVENIDA RIO BEIRAO                                                    183                                                                   RIBEIRAO                           4760-715RIBEIRAO                                620                                                              
20000535280690000308211160211000000000010000014038//JOAO SOUSA                                          102999999999000000000000000000001042803209891100400000999900000000000000000000000999900000000000000000000000000000000000000000000000000000000000000000105             TIEN 21                         300                   C00020                                                                                                                             
300005352806900003082111602JOAO FIGUEIRA DE SOUSA                                                                                                                      EST DAS ROMEIRAS                                                      N 30                                                                  JARDIM DA SERRA                    9325-133JARDIM DA SERRA                         620                                                              
20000545280690000308229160211000000000010000014038//JOSE JARDIM                                         102999999999000000000000000000001042803311271100400000999900000000000000000000000999900000000000000000000000000000000000000000000000000000000000000000105             TIEN 21                         600                   C00021                                                                                                                             
300005452806900003082291602JOSE PAULO GOMES JARDIM                                                                                                                     APARTAMENTOS SERRADO DO MAR                                           BL F2 R CHAO DIR                                                      CAMARA DE LOBOS                    9300-069CAMARA DE LOBOS                         620                                                              
20000585280690000308260160211000000000010000014038//IVO VIEIRA                                          102999999999000000000000000000001042803827321100400000999900000000000000000000000999900000000000000000000000000000000000000000000000000000000000000000105             TIEN 21                        1000                   C00025                                                                                                                             
300005852806900003082601602IVO LUDGERO FERNANDES VIEIRA                                                                                                                ESTRADA DOS MOINHOS                                                   199-B                                                                 CANICO                             9125-103CANICO                                  620                                                              
20000605280690000308286160211000000000010000014038//ANA RODRIGUES                                       102999999999000000000000000000001042804308791100400000999900000000000000000000000999900000000000000000000000000000000000000000000000000000000000000000105             TIEN 21                         900                   C00027                                                                                                                             
300006052806900003082861602ANA RITA FREITAS DE GOIS RODRIGUES                                                                                                          EDIFICIO EIRA                                                         BL2 1 K                                                               CAMACHA                            9135-435CAMACHA                                 620                                                              
900000011000000000000000000000000000000000                                                                                                                                                                                                                                                                                                                                                                                                                             
0MELCB0008481201402070152014020701497862000000000                                                                                                                                                                                                                                                                                                                                                                                                                      
152806900111034D N001        202233010101                                                      00200100300000000000000000000000000                                                                                                                                                                                                                                                                                                                                     
20000075280690000307908160211000000000010000014038//ARMANDO VIEIRA                                      102999999999000000000000000000001042506336271200400000999900000000000000000000000999900000000000000000000000000000000000000000000000000000000000000000105             CONFORT                         650                   C0000Q                                                                                                                             
300000752806900003079081602ARMANDO PEDRO DA SILVA VIEIRA                                                                                                               PRACETA DOS METALURGICOS                                              N 3 1 ESQ                                                             BAIXA DA BANHEIRA                  2835-000BAIXA DA BANHEIRA                       620                                                              
20000405280690000308161160211000000000010000014038//BRUNO LOBAO                                         102999999999000000000000000000001042788720661100400000999900000000000000000000000999900000000000000000000000000000000000000000000000000000000000000000105             CONFORT                         400                   C0001N                                                                                                                             
300004052806900003081611602BRUNO PEDRO PEREIRA LOBAO                                                                                                                   URB VARANDAS BALSEMAO                                                 BLOCO 1 - 3 DIREITO                                                   LAMEGO                             5100-008LAMEGO                                  620                                                              
20000505280690000308187160211000000000010000014038//VITOR PINHEIRO                                      102999999999000000000000000000001042803068711100400000999900000000000000000000000999900000000000000000000000000000000000000000000000000000000000000000105             CONFORT                        1100                   C0001X                                                                                                                             
300005052806900003081871602VITOR MANUEL DE ALMEIDA PINHEIRO                                                                                                            RUA CRUS DE S.TOME 135                                                135                                                                   AZOIA                              2400-823AZOIA                                   620                                                              
20000555280690000308237160211000000000010000014038//EULALIA MADEIRA                                     102999999999000000000000000000001042803561731100400000999900000000000000000000000999900000000000000000000000000000000000000000000000000000000000000000105             CONFORT                         300                   C00022                                                                                                                             
300005552806900003082371602EULALIA MARIA DA CUNHA MADEIRA                                                                                                              RUA DA CERCA                                                          40                                                                    SARGENTO MOR                       3020-832SARGENTO MOR                            620                                                              
20000565280690000308245160211000000000010000014038//ANTONIO PEREIRA                                     102999999999000000000000000000001042803788131100400000999900000000000000000000000999900000000000000000000000000000000000000000000000000000000000000000105             CONFORT                         600                   C00023                                                                                                                             
300005652806900003082451602ANTONIO BRAS MENDES PEREIRA                                                                                                                 RUA BOUCO                                                             21                                                                    MOREIRA DE CONEGOS                 4815-305MOREIRA DE CONEGOS                      620                                                              
900000011000000000000000000000000000000000                                                                                                                                                                                                                                                                                                                                                                                                                             
0MELCB0008481201402070162014020701597862000000000                                                                                                                                                                                                                                                                                                                                                                                                                      
152806909111034D N001        202370010101                                                      00200100300000000000000000000000000D                                                                                                                                                                                                                                                                                                                                    
20000065280690900004290170211000000000010000014038//FLORA CARIDADE                                      10299999999900000000000000000000104208877144110040000099990000000000000000000000099990000000000000000000000000000000000000000000000000000000000000000011123108396     FNAC                            600                   C0000P                                                                                                                             
300000652806909000042901702FLORA EUGENIA DE CARVALHO CARIDADE                                                                                                          DIOGO CAO                                                             407                                                                   VILA NOVA DE GAIA                  4400-106VILA NOVA DE GAIA                       620                                                              
40000065280690900004290170200000002310839623108396                                                                                                                                                                                                                                                                                                                                                                                                                     
20000315280690900004308170211000000000010000014038//NICOLAU AZEVEDO                                     10299999999900000000000000000000104269997302120040000099990000000000000000000000099990000000000000000000000000000000000000000000000000000000000000000011120302320     FNAC                           1050                   C0001E                                                                                                                             
300003152806909000043081702NICOLAU JOAO TEIXEIRA AZEVEDO                                                                                                               R36                                                                   884 1                                                                 ESPINHO                            4500-326ESPINHO                                 620                                                              
40000315280690900004308170200000002030232020302320                                                                                                                                                                                                                                                                                                                                                                                                                     
20000415280690900004316170211000000000010000014038//JOSE JUNQUEIRO                                      10299999999900000000000000000000104278890571110040000099990000000000000000000000099990000000000000000000000000000000000000000000000000000000000000000011123102384     FNAC                           1500                   C0001O                                                                                                                             
300004152806909000043161702JOSE ADELMO ANDRADE LOPES BORDALO JUNQUEIRO                                                                                                 RUA DO FONTELO                                                        LOTE 4 B                                                              VISEU                              3500-167VISEU                                   620                                                              
40000415280690900004316170200000002310238423102384                                                                                                                                                                                                                                                                                                                                                                                                                     
20000435280690900004324170211000000000010000014038//ANICETO MONFORTE                                    10299999999900000000000000000000104279608162110040000099990000000000000000000000099990000000000000000000000000000000000000000000000000000000000000000011123121184     FNAC                           1050                   C0001Q                                                                                                                             
300004352806909000043241702ANICETO MANUEL RAPOSO MONFORTE                                                                                                              R PEDRO BARCELOS                                                      N 55 RC DTO                                                           CASCAIS                            2750-185CASCAIS                                 620                                                              
40000435280690900004324170200000002312118423121184                                                                                                                                                                                                                                                                                                                                                                                                                     
20000455280690900004332170211000000000010000014038//ANA SILVA                                           10299999999900000000000000000000104279652434110040000099990000000000000000000000099990000000000000000000000000000000000000000000000000000000000000000011123108855     FNAC                            300                   C0001S                                                                                                                             
300004552806909000043321702ANA CATARINA DOS SANTOS PEREIRA DA SILVA                                                                                                    RUA DO CONDESTAVEL                                                    N76 3ESQ                                                              SAO JOAO DA MADEIRA                3700-091SAO JOAO DA MADEIRA                     620                                                              
40000455280690900004332170200000002310885523108855                                                                                                                                                                                                                                                                                                                                                                                                                     
900000016000000000000000000000000000000000                                                                                                                                                                                                                                                                                                                                                                                                                             
0MELCB0008481201402070172014020701697862000000000                                                                                                                                                                                                                                                                                                                                                                                                                      
152806907111034D N001        202879010101                                                      00200100300000000000000000000000000                                                                                                                                                                                                                                                                                                                                     
20000055280690700000282160211000000000010000014038//DR RUBEN LEITAO                                     1029999999990000000000000000000010420853849811004000009999000000000000000000000009999000000000000000000000000000000000000000000000000000000000000000001075601032876714SALVADOR CAETANO               4000                   C0000O                                                                                                                             
300000552806907000002821602RUBEN ANACORETA DE SEABRA ELVAS LEITAO                                                                                                      RUA DE SANTA TERESINHA                                                MANIQUE N  6                                                          MANIQUE                            2645-385MANIQUE                                 620                                                              
20000175280690700000290160211000000000010000014038//NUNO SANTOS                                         1029999999990000000000000000000010425709230611004000009999000000000000000000000009999000000000000000000000000000000000000000000000000000000000000000001075602132442847SALVADOR CAETANO               1050                   C00010                                                                                                                             
300001752806907000002901602NUNO MIGUEL GONCALVES VILAR DOS SANTOS                                                                                                      AVENIDA MARECHAL COSTA GOMES                                          21 - 2 A                                                              TORRE DA MARINHA                   2840-594TORRE DA MARINHA                        620                                                              
20000225280690700000308160211000000000010000014038//EDNA ANDREIA BATALHA                                1029999999990000000000000000000010426117985911004000009999000000000000000000000009999000000000000000000000000000000000000000000000000000000000000000001075602321749030SALVADOR CAETANO                300                   C00015                                                                                                                             
300002252806907000003081602EDNA ANDREIA DA CRUZ BATALHA                                                                                                                R MARTINHO ASSUNCAO N7 3DRT                                                                                                                 STA MARTA                          2855-599SANTA MARTA DO PINHAL - C               620                                                              
20000335280690700000316160211000000000010000014038//ANA BERNARDO                                        1029999999990000000000000000000010427146007511004000009999000000000000000000000009999000000000000000000000000000000000000000000000000000000000000000001075601959857704SALVADOR CAETANO               1250                   C0001G                                                                                                                             
300003352806907000003161602ANA PAULA DO ESPIRITO SANTO TAVARES BERNARDO                                                                                                LARGO CURSO SILVA MONTEIRO                                            55 5  HAB 151                                                         PORTO                              4150-761PORTO                                   620                                                              
900000009000000000000000000000000000000000                                                                                                                                                                                                                                                                                                                                                                                                                             
0MELCB0008481201402070182014020701797862000000000                                                                                                                                                                                                                                                                                                                                                                                                                      
152806908111034D N001        203173010101                                                      00200100300000000000000000000000000                                                                                                                                                                                                                                                                                                                                     
20000445280690800000224170211000000000010000014038//JOSE DANTIER                                        1029999999990000000000000000000010427962172811004000009999000000000000000000000009999000000000000000000000000000000000000000000000000000000000000000001095800000685253RADIO POPULAR                  1000                   C0001R                                                                                                                             
300004452806908000002241702JOSE LUIS ANTONIO DANTIER                                                                                                                   RUA FRANCISCO SALGADO ZENHA                                           N21 1 CAVE C                                                          MERCES                             2725-548MERCES                                  620                                                              
20000465280690800000232170211000000000010000014038//ILMA MATIAS                                         1029999999990000000000000000000010427986657011004000009999000000000000000000000009999000000000000000000000000000000000000000000000000000000000000000001095800000780347RADIO POPULAR                   750                   C0001T                                                                                                                             
300004652806908000002321702ILMA RODRIGUES CLARKES MATIAS                                                                                                               RUA DO PASSADICO                                                      25 1                                                                  LISBOA                             1150-253LISBOA                                  620                                                              
20000475280690800000240170211000000000010000014038//EUGENIA SOARES                                      1029999999990000000000000000000010428000913711004000009999000000000000000000000009999000000000000000000000000000000000000000000000000000000000000000001095800000768666RADIO POPULAR                   500                   C0001U                                                                                                                             
300004752806908000002401702EUGENIA DA ENCARNACAO BENTO SOARES                                                                                                          RUA DA REGUEIRA DE LOBOS                                              N5                                                                    PRAIA DAS MACAS                    2705-348PRAIA DAS MACAS                         620                                                              
20000495280690800000257170211000000000010000014038//JOSE RODRIGUES                                      1029999999990000000000000000000010428005269911004000009999000000000000000000000009999000000000000000000000000000000000000000000000000000000000000000001095800000833173RADIO POPULAR                  1300                   C0001W                                                                                                                             
300004952806908000002571702JOSE MARIA RIBEIRO PARRINHA RODRIGUES                                                                                                       RUA CASAL DO ABADECO LT356                                            CASAL DO BISPO FAMOES                                                 FAMOES                             1685-844FAMOES                                  620                                                              
900000009000000000000000000000000000000000                                                                                                                                                                                                                                                                                                                                                                                                                             
0MELCB0008481201402140012014020701897862000000000                                                                                                                                                                                                                                                                                                                                                                                                                      
152806900111034D N001        202228010101                                                      00200100300000000000000000000000000                                                                                                                                                                                                                                                                                                                                     
20000015280690000308302170211000000000010000014045//TANIA TESTES IKEA UM                                102999999999000000000000000000001042691489061100400000999900000000000000000000000999900000000000000000000000000000000000000000000000000000000000000000105             IKEA                           1800                   C0002P                                                                                                                             
300000152806900003083021702TANIA TESTES IKEA UM                                                                                                                        RUA XXX                                                               20                                                                    SANTAREM                           2000-000SANTAREM                                620                                                              
20000025280690000308310170211000000000010000014045//TANIA DOIS                                          102999999999000000000000000000001042691489141100400000999900000000000000000000000999900000000000000000000000000000000000000000000000000000000000000000105             IKEA                           2800                   C0002Q                                                                                                                             
300000252806900003083101702TANIA TESTES IKEA DOIS                                                                                                                      RUA XX                                                                20                                                                    SANTAREM                           2000-000SANTAREM                                620                                                              
20000035280690000308328170211000000000010000014045//TANIA TRES                                          102999999999000000000000000000001042691489221100400000999900000000000000000000000999900000000000000000000000000000000000000000000000000000000000000000105             IKEA                           3300                   C0002R                                                                                                                             
300000352806900003083281702TANIA TESTES XXX IKEA TRES                                                                                                                  RUA ZZZ                                                               20                                                                    SANTAREM                           2000-000SANTAREM                                620                                                              
20000045280690000308336170211000000000010000014045//TANIA QUATRO                                        102999999999000000000000000000001042691489301100400000999900000000000000000000000999900000000000000000000000000000000000000000000000000000000000000000105             IKEA                           1050                   C0002S                                                                                                                             
300000452806900003083361702TANIA TESTES XXX QUATRO                                                                                                                     RUA XXX                                                               20                                                                    SANTAREM                           2000-000SANTAREM                                620                                                              
20000055280690000308344170211000000000010000014045//TANIA TESTES XXX                                    102999999999000000000000000000001042691489481100400000999900000000000000000000000999900000000000000000000000000000000000000000000000000000000000000000105             IKEA                           3500                   C0002T                                                                                                                             
300000552806900003083441702TANIA TESTES XXX                                                                                                                            RUA XXX                                                               20                                                                    SANTAREM                           2000-000SANTAREM                                620                                                              
900000011000000000000000000000000000000000                                                                                                                                                                                                                                                                                                                                                                                                                             
0MELCB0008481201402140022014021400197862000000000                                                                                                                                                                                                                                                                                                                                                                                                                      
152806909111034D N001        202370010101                                                      00200100300000000000000000000000000D                                                                                                                                                                                                                                                                                                                                    
20000105280690900004340170211000000000010000014045//TANIA UM                                            10299999999900000000000000000000104269149086110040000099990000000000000000000000099990000000000000000000000000000000000000000000000000000000000000000011113001212     FNAC                           2500                   C0002Y                                                                                                                             
300001052806909000043401702TANIA TESTES CARTAO FNAC UM                                                                                                                 RUA TESTE                                                             20                                                                    ALMADA                             2800-000ALMADA                                  620                                                              
40000105280690900004340170200000001300121213001212                                                                                                                                                                                                                                                                                                                                                                                                                     
20000115280690900004357170211000000000010000014045//TANIA DOIS                                          10299999999900000000000000000000104269149094110040000099990000000000000000000000099990000000000000000000000000000000000000000000000000000000000000000011113001213     FNAC                           1000                   C0002Z                                                                                                                             
300001152806909000043571702TANIA TESTES FNAC DOIS                                                                                                                      RUA XXX                                                               20                                                                    ALMADA                             2800-000ALMADA                                  620                                                              
40000115280690900004357170200000001300121313001213                                                                                                                                                                                                                                                                                                                                                                                                                     
20000125280690900004365170211000000000010000014045//TANIA TRES                                          10299999999900000000000000000000104269149102110040000099990000000000000000000000099990000000000000000000000000000000000000000000000000000000000000000011113001214     FNAC                           1050                   C00030                                                                                                                             
300001252806909000043651702TANIA TESTES FNAC TRES                                                                                                                      RUA XXX                                                               20                                                                    ALMADA                             2800-000ALMADA                                  620                                                              
40000125280690900004365170200000001300121413001214                                                                                                                                                                                                                                                                                                                                                                                                                     
20000135280690900004373170211000000000010000014045//TANIA QUATRO                                        10299999999900000000000000000000104269149110110040000099990000000000000000000000099990000000000000000000000000000000000000000000000000000000000000000011113001215     FNAC                           1800                   C00031                                                                                                                             
300001352806909000043731702TANIA TESTES FNAC QUATRO                                                                                                                    RUA XX                                                                20                                                                    SANTAREM                           2000-000SANTAREM                                620                                                              
40000135280690900004373170200000001300121513001215                                                                                                                                                                                                                                                                                                                                                                                                                     
20000145280690900004381170211000000000010000014045//TANIA CINCO                                         10299999999900000000000000000000104269149128110040000099990000000000000000000000099990000000000000000000000000000000000000000000000000000000000000000011113001216     FNAC                           1800                   C00032                                                                                                                             
300001452806909000043811702TANIA TESTES FNAC CINCO                                                                                                                     RUA XXX                                                               NR 20 2DRT                                                            SANTAREM                           2000-000SANTAREM                                620                                                              
40000145280690900004381170200000001300121613001216                                                                                                                                                                                                                                                                                                                                                                                                                     
900000016000000000000000000000000000000000                                                                                                                                                                                                                                                                                                                                                                                                                             
0MELCB0008481201402140032014021400297862000000000                                                                                                                                                                                                                                                                                                                                                                                                                      
152806908111034D N001        203173010101                                                      00200100300000000000000000000000000                                                                                                                                                                                                                                                                                                                                     
20000065280690800000265170211000000000010000014045//TANIA TESTES UM RP                                  1029999999990000000000000000000010426914896311004000009999000000000000000000000009999000000000000000000000000000000000000000000000000000000000000000001095800000012219RADIO POPULAR                  2800                   C0002U                                                                                                                             
300000652806908000002651702TANIA TESTES UM RP                                                                                                                          RUA CCC                                                               20                                                                    SANTAREM                           2000-000SANTAREM                                620                                                              
20000075280690800000273170211000000000010000014045//TANIA TESTES RP DOIS                                1029999999990000000000000000000010426914897111004000009999000000000000000000000009999000000000000000000000000000000000000000000000000000000000000000001095800000012226RADIO POPULAR                  2800                   C0002V                                                                                                                             
300000752806908000002731702TANIA TESTES RP DOIS                                                                                                                        RUA CCC                                                               20                                                                    ALMADA                             2800-000ALMADA                                  620                                                              
20000085280690800000281170211000000000010000014045//TANIA POP                                           1029999999990000000000000000000010426914899711004000009999000000000000000000000009999000000000000000000000000000000000000000000000000000000000000000001095800000012240RADIO POPULAR                  3000                   C0002W                                                                                                                             
300000852806908000002811702TANIA TESTES RADIO POP                                                                                                                      RUA XXX                                                               20                                                                    ALMADA                             2800-000ALMADA                                  620                                                              
20000095280690800000299170211000000000010000014045//TANIA CINCO                                         1029999999990000000000000000000010426914900311004000009999000000000000000000000009999000000000000000000000000000000000000000000000000000000000000000001095800000012257RADIO POPULAR                  3000                   C0002X                                                                                                                             
300000952806908000002991702TANIA TESTES RADIO POPULAR CINCO                                                                                                            RUA CCC                                                               20                                                                    SANTAREM                           2000-000SANTAREM                                620                                                              
900000009000000000000000000000000000000000                                                                                                                                                                                                                                                                                                                                                                                                                             
