0MELCB0008481201402140042014021400397862000000000                                                                                                                                                                                                                                                                                                                                                                                                                      
150402179100033  N001        202369010102                                                      00000000000000000000000000000000000D                                                                                                                                                                                                                                                                                                                                    
20000815040217900018434151211000000000010000014036FNAC COLOMBO                                          102000000000000000000000000000001504021790001843400000999900000000000000000000000999900000000000000000000000000000000000000000000000000000000000000000   03001212                                                                                                                                                                                              
300008150402179000184341512FNAC COLOMBO                                                                                                                                AV LUSIADA CC COLOMBO                                                                                                                       LISBOA                             1500-392LISBOA                                  620                                                              
40000815040217900018434151200000000300121203001212                                                                                                                                                                                                                                                                                                                                                                                                                     
20000825040217900018442151211000000000010000014036FNAC COLOMBO                                          102000000000000000000000000000001504021790001844400000999900000000000000000000000999900000000000000000000000000000000000000000000000000000000000000000   03001213                                                                                                                                                                                              
300008250402179000184421512FNAC COLOMBO                                                                                                                                AV LUSIADA CC COLOMBO                                                                                                                       LISBOA                             1500-392LISBOA                                  620                                                              
40000825040217900018442151200000000300121303001213                                                                                                                                                                                                                                                                                                                                                                                                                     
20000835040217900018459151211000000000010000014036FNAC COLOMBO                                          102000000000000000000000000000001504021790001845400000999900000000000000000000000999900000000000000000000000000000000000000000000000000000000000000000   03001214                                                                                                                                                                                              
300008350402179000184591512FNAC COLOMBO                                                                                                                                AV LUSIADA CC COLOMBO                                                                                                                       LISBOA                             1500-392LISBOA                                  620                                                              
40000835040217900018459151200000000300121403001214                                                                                                                                                                                                                                                                                                                                                                                                                     
20000845040217900018467151211000000000010000014036FNAC COLOMBO                                          102000000000000000000000000000001504021790001846400000999900000000000000000000000999900000000000000000000000000000000000000000000000000000000000000000   03001215                                                                                                                                                                                              
300008450402179000184671512FNAC COLOMBO                                                                                                                                AV LUSIADA CC COLOMBO                                                                                                                       LISBOA                             1500-392LISBOA                                  620                                                              
40000845040217900018467151200000000300121503001215                                                                                                                                                                                                                                                                                                                                                                                                                     
20000855040217900018475151211000000000010000014036FNAC COLOMBO                                          102000000000000000000000000000001504021790001847400000999900000000000000000000000999900000000000000000000000000000000000000000000000000000000000000000   03001216                                                                                                                                                                                              
300008550402179000184751512FNAC COLOMBO                                                                                                                                AV LUSIADA CC COLOMBO                                                                                                                       LISBOA                             1500-392LISBOA                                  620                                                              
40000855040217900018475151200000000300121603001216                                                                                                                                                                                                                                                                                                                                                                                                                     
20000865040217900018483151211000000000010000014036FNAC COLOMBO                                          102000000000000000000000000000001504021790001848400000999900000000000000000000000999900000000000000000000000000000000000000000000000000000000000000000   03001217                                                                                                                                                                                              
300008650402179000184831512FNAC COLOMBO                                                                                                                                AV LUSIADA CC COLOMBO                                                                                                                       LISBOA                             1500-392LISBOA                                  620                                                              
40000865040217900018483151200000000300121703001217                                                                                                                                                                                                                                                                                                                                                                                                                     
20000875040217900018491151211000000000010000014036FNAC COLOMBO                                          102000000000000000000000000000001504021790001849400000999900000000000000000000000999900000000000000000000000000000000000000000000000000000000000000000   03001218                                                                                                                                                                                              
300008750402179000184911512FNAC COLOMBO                                                                                                                                AV LUSIADA CC COLOMBO                                                                                                                       LISBOA                             1500-392LISBOA                                  620                                                              
40000875040217900018491151200000000300121803001218                                                                                                                                                                                                                                                                                                                                                                                                                     
20000885040217900018509151211000000000010000014036FNAC COLOMBO                                          102000000000000000000000000000001504021790001850400000999900000000000000000000000999900000000000000000000000000000000000000000000000000000000000000000   03001219                                                                                                                                                                                              
300008850402179000185091512FNAC COLOMBO                                                                                                                                AV LUSIADA CC COLOMBO                                                                                                                       LISBOA                             1500-392LISBOA                                  620                                                              
40000885040217900018509151200000000300121903001219                                                                                                                                                                                                                                                                                                                                                                                                                     
20000895040217900018517151211000000000010000014036FNAC COLOMBO                                          102000000000000000000000000000001504021790001851400000999900000000000000000000000999900000000000000000000000000000000000000000000000000000000000000000   03001220                                                                                                                                                                                              
300008950402179000185171512FNAC COLOMBO                                                                                                                                AV LUSIADA CC COLOMBO                                                                                                                       LISBOA                             1500-392LISBOA                                  620                                                              
40000895040217900018517151200000000300122003001220                                                                                                                                                                                                                                                                                                                                                                                                                     
20000905040217900018525151211000000000010000014036FNAC COLOMBO                                          102000000000000000000000000000001504021790001852400000999900000000000000000000000999900000000000000000000000000000000000000000000000000000000000000000   03001221                                                                                                                                                                                              
300009050402179000185251512FNAC COLOMBO                                                                                                                                AV LUSIADA CC COLOMBO                                                                                                                       LISBOA                             1500-392LISBOA                                  620                                                              
40000905040217900018525151200000000300122103001221                                                                                                                                                                                                                                                                                                                                                                                                                     
20000915040217900018533151211000000000010000014036FNAC COLOMBO                                          102000000000000000000000000000001504021790001853400000999900000000000000000000000999900000000000000000000000000000000000000000000000000000000000000000   03001222                                                                                                                                                                                              
300009150402179000185331512FNAC COLOMBO                                                                                                                                AV LUSIADA CC COLOMBO                                                                                                                       LISBOA                             1500-392LISBOA                                  620                                                              
40000915040217900018533151200000000300122203001222                                                                                                                                                                                                                                                                                                                                                                                                                     
20000925040217900018541151211000000000010000014036FNAC COLOMBO                                          102000000000000000000000000000001504021790001854400000999900000000000000000000000999900000000000000000000000000000000000000000000000000000000000000000   03001223                                                                                                                                                                                              
300009250402179000185411512FNAC COLOMBO                                                                                                                                AV LUSIADA CC COLOMBO                                                                                                                       LISBOA                             1500-392LISBOA                                  620                                                              
40000925040217900018541151200000000300122303001223                                                                                                                                                                                                                                                                                                                                                                                                                     
20000935040217900018558151211000000000010000014036FNAC COLOMBO                                          102000000000000000000000000000001504021790001855400000999900000000000000000000000999900000000000000000000000000000000000000000000000000000000000000000   03001224                                                                                                                                                                                              
300009350402179000185581512FNAC COLOMBO                                                                                                                                AV LUSIADA CC COLOMBO                                                                                                                       LISBOA                             1500-392LISBOA                                  620                                                              
40000935040217900018558151200000000300122403001224                                                                                                                                                                                                                                                                                                                                                                                                                     
20000945040217900018566151211000000000010000014036FNAC COLOMBO                                          102000000000000000000000000000001504021790001856400000999900000000000000000000000999900000000000000000000000000000000000000000000000000000000000000000   03001225                                                                                                                                                                                              
300009450402179000185661512FNAC COLOMBO                                                                                                                                AV LUSIADA CC COLOMBO                                                                                                                       LISBOA                             1500-392LISBOA                                  620                                                              
40000945040217900018566151200000000300122503001225                                                                                                                                                                                                                                                                                                                                                                                                                     
20000955040217900018574151211000000000010000014036FNAC COLOMBO                                          102000000000000000000000000000001504021790001857400000999900000000000000000000000999900000000000000000000000000000000000000000000000000000000000000000   03001226                                                                                                                                                                                              
300009550402179000185741512FNAC COLOMBO                                                                                                                                AV LUSIADA CC COLOMBO                                                                                                                       LISBOA                             1500-392LISBOA                                  620                                                              
40000955040217900018574151200000000300122603001226                                                                                                                                                                                                                                                                                                                                                                                                                     
20000965040217900018582151211000000000010000014036FNAC COLOMBO                                          102000000000000000000000000000001504021790001858400000999900000000000000000000000999900000000000000000000000000000000000000000000000000000000000000000   03001227                                                                                                                                                                                              
300009650402179000185821512FNAC COLOMBO                                                                                                                                AV LUSIADA CC COLOMBO                                                                                                                       LISBOA                             1500-392LISBOA                                  620                                                              
40000965040217900018582151200000000300122703001227                                                                                                                                                                                                                                                                                                                                                                                                                     
20000975040217900018590151211000000000010000014036FNAC COLOMBO                                          102000000000000000000000000000001504021790001859400000999900000000000000000000000999900000000000000000000000000000000000000000000000000000000000000000   03001228                                                                                                                                                                                              
300009750402179000185901512FNAC COLOMBO                                                                                                                                AV LUSIADA CC COLOMBO                                                                                                                       LISBOA                             1500-392LISBOA                                  620                                                              
40000975040217900018590151200000000300122803001228                                                                                                                                                                                                                                                                                                                                                                                                                     
20000985040217900018608151211000000000010000014036FNAC COLOMBO                                          102000000000000000000000000000001504021790001860400000999900000000000000000000000999900000000000000000000000000000000000000000000000000000000000000000   03001229                                                                                                                                                                                              
300009850402179000186081512FNAC COLOMBO                                                                                                                                AV LUSIADA CC COLOMBO                                                                                                                       LISBOA                             1500-392LISBOA                                  620                                                              
40000985040217900018608151200000000300122903001229                                                                                                                                                                                                                                                                                                                                                                                                                     
20000995040217900018616151211000000000010000014036FNAC COLOMBO                                          102000000000000000000000000000001504021790001861400000999900000000000000000000000999900000000000000000000000000000000000000000000000000000000000000000   03001230                                                                                                                                                                                              
300009950402179000186161512FNAC COLOMBO                                                                                                                                AV LUSIADA CC COLOMBO                                                                                                                       LISBOA                             1500-392LISBOA                                  620                                                              
40000995040217900018616151200000000300123003001230                                                                                                                                                                                                                                                                                                                                                                                                                     
20001005040217900018624151211000000000010000014036FNAC COLOMBO                                          102000000000000000000000000000001504021790001862400000999900000000000000000000000999900000000000000000000000000000000000000000000000000000000000000000   03001231                                                                                                                                                                                              
300010050402179000186241512FNAC COLOMBO                                                                                                                                AV LUSIADA CC COLOMBO                                                                                                                       LISBOA                             1500-392LISBOA                                  620                                                              
40001005040217900018624151200000000300123103001231                                                                                                                                                                                                                                                                                                                                                                                                                     
900000061000000000000000000000000000000000                                                                                                                                                                                                                                                                                                                                                                                                                             
