0MELCB0008481201403070022014030700197862000000000                                                                                                                                                                                                                                                                                                                                                                                                                      
152806909111034D N001        202370010101                                                      00200100300000000000000000000000000D                                                                                                                                                                                                                                                                                                                                    
20000015280690900004407170311000000000010000014077//JOSE JUNQUEIRO                                      10299999999900000000000000000000104278890571110040000099990000000000000000000000099990000000000000000000000000000000000000000000000000000000000000000011133102384     FNAC                           1500                   C0003I                                                                                                                             
300000152806909000044071703JOSE ADELMO ANDRADE LOPES BORDALO JUNQUEIRO                                                                                                 RUA DO FONTELO                                                        LOTE 4 B                                                              VISEU                              3500-167VISEU                                   620                                                              
4000001528069090000440717030000033102384                                                                                                                                                                                                                                                                                                                                                                                                                               
900000004000000000000000000000000000000000                                                                                                                                                                                                                                                                                                                                                                                                                             
