0MELCB0008481201403070012014021400497862000000000                                                                                                                                                                                                                                                                                                                                                                                                                      
163610703101033  N001        206508010101                                                      00000000000000000000000000000000000D                                                                                                                                                                                                                                                                                                                                    
20000016361070349180334200311000000000010000014066//ANTONIO SOUSA                                       1029999999990000000000000000000010426914994611004000009999000000000000000000000009999000000000000000000000000000000000000000000000000000000000000000001141808801998262LOJAS SPORTZONE                 500                   C0003E                                                                                                                             
300000163610703491803342003ANTONIO SOUSA                                                                                                                               RUA DO MAR                                                            10                                                                    LISBOA                             1500-001LISBOA                                  620                                                              
4000001636107034918033420031808801998262  VITALSPZ                                                                                                                                                                                                                                                                                                                                                                                                                     
20000026361070349180342200311000000000010000014066//MARIA OLINDA                                        1029999999990000000000000000000010426914995311004000009999000000000000000000000009999000000000000000000000000000000000000000000000000000000000000000001141808801998279LOJAS SPORTZONE                 500                   C0003F                                                                                                                             
300000263610703491803422003MARIA OLINDA                                                                                                                                RUA DO SOL NASCENTE                                                   11                                                                    LISBOA                             1500-010LISBOA                                  620                                                              
4000002636107034918034220031808801998279  VITALSPZ                                                                                                                                                                                                                                                                                                                                                                                                                     
20000036361070349180359200311000000000010000014066//MADALENA SOUSA                                      1029999999990000000000000000000010426914996111004000009999000000000000000000000009999000000000000000000000000000000000000000000000000000000000000000001141808801998286LOJAS SPORTZONE                 500                   C0003G                                                                                                                             
300000363610703491803592003MADALENA SOUSA                                                                                                                              RUA DO SOL NASCENTE                                                   10                                                                    LISBOA                             1500-001LISBOA                                  620                                                              
4000003636107034918035920031808801998286  VITALSPZ                                                                                                                                                                                                                                                                                                                                                                                                                     
20000046361070349180367200311000000000010000014066//MARIA PARDAL                                        1029999999990000000000000000000010426914997911004000009999000000000000000000000009999000000000000000000000000000000000000000000000000000000000000000001141808801998293LOJAS SPORTZONE                 500                   C0003H                                                                                                                             
300000463610703491803672003MARIA DOS ANJOS PARDAL                                                                                                                      RUA DO SOL NASCENTE                                                   20                                                                    LISBOA                             1500-001LISBOA                                  620                                                              
4000004636107034918036720031808801998293  VITALSPZ                                                                                                                                                                                                                                                                                                                                                                                                                     
900000013000000000000000000000000000000000                                                                                                                                                                                                                                                                                                                                                                                                                             
