0MELCB0008481201402070012014020500797862000000000                                                                                                                                                                                                                                                                                                                                                                                                                      
163610709101033  N001        202205010101                                                      00000000000000000000000000000000000D                                                                                                                                                                                                                                                                                                                                    
20000636361070936568008200211000000000010000014038//ALBERTINA SILVA                                     1029999999990000000000000000000010480060142113004000009999000000000000000000000009999000000000000000000000000000000000000000000000000000000000000000001301858810999743LOJAS CONTINENTE                450                   C0002A                                                                                                                             
300006363610709365680082002MARIA ALBERTINA FARIA DA SILVA                                                                                                              RUA DO ACENTO N44                                                                                                                           BRITO                              4805-019BRITO                                   620                                                              
4000063636107093656800820021858810999743  VITALNAP                                                                                                                                                                                                                                                                                                                                                                                                                     
20000676361070936568016200211000000000010000014038//FLORIVAL PINHO                                      1029999999990000000000000000000010480134176112004000009999000000000000000000000009999000000000000000000000000000000000000000000000000000000000000000001301858810999736LOJAS CONTINENTE                450                   C0002E                                                                                                                             
300006763610709365680162002FLORIVAL FERNANDES DE PINHO                                                                                                                 PRACETA DIOGO DO COUTO 11-1. DT.                                      LARANJEIRO                                                            ALMADA                             2810-332ALMADA                                  620                                                              
4000067636107093656801620021858810999736  VITALNAP                                                                                                                                                                                                                                                                                                                                                                                                                     
20000686361070936568024200211000000000010000014038//JOSE CHAMBEL                                        1029999999990000000000000000000010480192748612004000009999000000000000000000000009999000000000000000000000000000000000000000000000000000000000000000001301858810999729LOJAS CONTINENTE                750                   C0002F                                                                                                                             
300006863610709365680242002JOSE ANTONIO PEREIRA CHAMBEL                                                                                                                ESTRADA DA FAGULHA N30-30A                                            SAMPAIO                                                               SESIMBRA                           2970-648COTOVIA - SESIMBRA                      620                                                              
4000068636107093656802420021858810999729  VITALNAP                                                                                                                                                                                                                                                                                                                                                                                                                     
20000696361070936568032200211000000000010000014038//ANTONIO LOBO                                        1029999999990000000000000000000010480210573611004000009999000000000000000000000009999000000000000000000000000000000000000000000000000000000000000000001301858810999712LOJAS CONTINENTE                750                   C0002G                                                                                                                             
300006963610709365680322002ANTONIO TAVARES LOBO                                                                                                                        R CAMILO FERREIRA 47                                                  OLIVEIRA DE AZEMEIS                                                   OLIVEIRA DE AZEMEIS                3720-308OLIVEIRA DE AZEMEIS                     620                                                              
4000069636107093656803220021858810999712  VITALNAP                                                                                                                                                                                                                                                                                                                                                                                                                     
20000716361070936568040200211000000000010000014038//JOSE RIBEIRO                                        1029999999990000000000000000000010480370343011004000009999000000000000000000000009999000000000000000000000000000000000000000000000000000000000000000001301858810999705LOJAS CONTINENTE                450                   C0002I                                                                                                                             
300007163610709365680402002JOSE FERNANDO RODRIGUES RIBEIRO                                                                                                             RUA ILHA SANTA MARIA N.88 3. ESQ                                      SASSOEIROS                                                            CARCAVELOS                         2775-799SASSOEIROS - CARCAVELOS                 620                                                              
4000071636107093656804020021858810999705  VITALNAP                                                                                                                                                                                                                                                                                                                                                                                                                     
900000016000000000000000000000000000000000                                                                                                                                                                                                                                                                                                                                                                                                                             
0MELCB0008481201402070022014020700197862000000000                                                                                                                                                                                                                                                                                                                                                                                                                      
163610707101033  N001        202208010101                                                      00000000000000000000000000000000000D                                                                                                                                                                                                                                                                                                                                    
20000346361070736567846200211000000000010000014038//ANA CRISTINA DELGADO                                1029999999990000000000000000000010427286689011004000009999000000000000000000000009999000000000000000000000000000000000000000000000000000000000000000001311858810999699LOJAS CONTINENTE                300                   C0001H                                                                                                                             
300003463610707365678462002ANA CRISTINA BULHOES DELGADO                                                                                                                R REDES 6 RC ESQ A                                                                                                                          PENICHE                            2520-353PENICHE                                 620                                                              
4000034636107073656784620021858810999699  VITALNAP                                                                                                                                                                                                                                                                                                                                                                                                                     
20000486361070736567853200211000000000010000014038//MARIA PINHO                                         1029999999990000000000000000000010428004442311004000009999000000000000000000000009999000000000000000000000000000000000000000000000000000000000000000001311858810999682LOJAS CONTINENTE                250                   C0001V                                                                                                                             
300004863610707365678532002MARIA CLARA BRAGA DE PINHO                                                                                                                  R. DR LEOPOLDO SOARES REIS                                            N. 64 - 3. ESQ                                                        OLIVEIRA AZEMEIS                   3720-124OLIVEIRA DE AZEMEIS                     620                                                              
4000048636107073656785320021858810999682  VITALNAP                                                                                                                                                                                                                                                                                                                                                                                                                     
20000616361070736567861200211000000000010000014038//IDALINA RAMALHO                                     1029999999990000000000000000000010428047640111004000009999000000000000000000000009999000000000000000000000000000000000000000000000000000000000000000001311858810999675LOJAS CONTINENTE                300                   C00028                                                                                                                             
300006163610707365678612002IDALINA SANTOS RAMALHO                                                                                                                      RUA DOS ATOLEIROS                                                     N 2 4 FT 2                                                            SETUBAL                            2910-409SETUBAL                                 620                                                              
4000061636107073656786120021858810999675  VITALNAP                                                                                                                                                                                                                                                                                                                                                                                                                     
20000756361070736567879200211000000000010000014038//ESTRELA FERREIRA                                    1029999999990000000000000000000010480832498411004000009999000000000000000000000009999000000000000000000000000000000000000000000000000000000000000000001311858810999668LOJAS CONTINENTE                250                   C0002M                                                                                                                             
300007563610707365678792002ESTRELA SOFIA BARREIROS FERREIRA                                                                                                            RUA PROF. FILOMENA MONTEIRO                                           128 5 DTO CTRO                                                        VALBOM                             4420-538VALBOM - VALBOM GDM                     620                                                              
4000075636107073656787920021858810999668  VITALNAP                                                                                                                                                                                                                                                                                                                                                                                                                     
900000013000000000000000000000000000000000                                                                                                                                                                                                                                                                                                                                                                                                                             
0MELCB0008481201402070032014020700297862000000000                                                                                                                                                                                                                                                                                                                                                                                                                      
163610703101033  N001        206508010101                                                      00000000000000000000000000000000000D                                                                                                                                                                                                                                                                                                                                    
20000026361070349180292200211000000000010000014038//JORGE FERREIRA                                      1029999999990000000000000000000010420590012112004000009999000000000000000000000009999000000000000000000000000000000000000000000000000000000000000000001341808801999795LOJAS SPORTZONE                 400                   C0000L                                                                                                                             
300000263610703491802922002JORGE ADRIANO DA SILVA IGLESIAS FERREIRA                                                                                                    RUA RAMAL DO MEIO                                                     N 102 1 ESQ                                                           PORTO                              4250-387PORTO                                   620                                                              
4000002636107034918029220021808801999795  VITALSPZ                                                                                                                                                                                                                                                                                                                                                                                                                     
20000216361070349180300200211000000000010000014038//DRA JOANA GOMES                                     1029999999990000000000000000000010426116200411004000009999000000000000000000000009999000000000000000000000000000000000000000000000000000000000000000001341808801999788LOJAS SPORTZONE                 400                   C00014                                                                                                                             
300002163610703491803002002JOANA MARGARIDA BARROS FERNANDES GOMES                                                                                                      RUA MANUEL DA SILVA REIS                                              72                                                                    SEQUEIRO                           4780-606SEQUEIRO                                620                                                              
4000021636107034918030020021808801999788  VITALSPZ                                                                                                                                                                                                                                                                                                                                                                                                                     
20000326361070349180318200211000000000010000014038//JOAO PIRES                                          1029999999990000000000000000000010427036509312004000009999000000000000000000000009999000000000000000000000000000000000000000000000000000000000000000001341808801999771LOJAS SPORTZONE                 200                   C0001F                                                                                                                             
300003263610703491803182002JOAO MIGUEL RAPOSO PIRES                                                                                                                    RUA JORNAL CORREIO DO SUL 33                                          1  DTO                                                                FARO                               8005-240FARO                                    620                                                              
4000032636107034918031820021808801999771  VITALSPZ                                                                                                                                                                                                                                                                                                                                                                                                                     
20000766361070349180326200211000000000010000014038//RUI SIMOES                                          1029999999990000000000000000000010480875058411004000009999000000000000000000000009999000000000000000000000000000000000000000000000000000000000000000001341808801999764LOJAS SPORTZONE                 400                   C0002N                                                                                                                             
300007663610703491803262002RUI MIGUEL DE JESUS ALEXANDRE SIMOES                                                                                                        R JOSE DIAS COELHO                                                    N12   11 D                                                            MEM MARTINS                        2725-552MEM MARTINS                             620                                                              
4000076636107034918032620021808801999764  VITALSPZ                                                                                                                                                                                                                                                                                                                                                                                                                     
900000013000000000000000000000000000000000                                                                                                                                                                                                                                                                                                                                                                                                                             
0MELCB0008481201402070042014020700397862000000000                                                                                                                                                                                                                                                                                                                                                                                                                      
163610704101033  N001        206806010101                                                      00000000000000000000000000000000000D                                                                                                                                                                                                                                                                                                                                    
20000036361070449180853200211000000000010000014038//RODRIGO SILVA                                       1029999999990000000000000000000010420591684611004000009999000000000000000000000009999000000000000000000000000000000000000000000000000000000000000000001331908839573599LOJAS WORTEN                    750                   C0000M                                                                                                                             
300000363610704491808532002RODRIGO MANUEL DA CRUZ SILVA                                                                                                                RUA NOBREGA E SOUSA                                                   N 3 RCH DRT.                                                          PAIO PIRES                         2840-140PAIO PIRES                              620                                                              
4000003636107044918085320021908839573599  00000000                                                                                                                                                                                                                                                                                                                                                                                                                     
20000626361070449180861200211000000000010000014038//LUIS ANTONIO COELHO                                 1029999999990000000000000000000010480049571711004000009999000000000000000000000009999000000000000000000000000000000000000000000000000000000000000000001331908839573605WORTEN PRE ACEITES             1250                   C00029                                                                                                                             
300006263610704491808612002LUIS ANTONIO CARDOSO COELHO                                                                                                                 R NOVA PREISAL SN                                                                                                                           FONTE ARCADA PNF                   4560-111FONTE ARCADA PNF                        620                                                              
4000062636107044918086120021908839573605  00000000                                                                                                                                                                                                                                                                                                                                                                                                                     
20000646361070449180879200211000000000010000014038//JOSE MANUEL PEREIRA                                 1029999999990000000000000000000010480065803311004000009999000000000000000000000009999000000000000000000000000000000000000000000000000000000000000000001331908839573612WORTEN PRE ACEITES             1500                   C0002B                                                                                                                             
300006463610704491808792002JOSE MANUEL CHAVEIRO PEREIRA                                                                                                                TV DISPENSARIO 44 LT 12 3                                             LACOES CIMA                                                           OLIVEIRA DE AZEMEIS                3720-179GANDARA - OSSELA                        620                                                              
4000064636107044918087920021908839573612  00000000                                                                                                                                                                                                                                                                                                                                                                                                                     
20000656361070449180887200211000000000010000014038//JOAQUIM GODINHO                                     1029999999990000000000000000000010480077030911004000009999000000000000000000000009999000000000000000000000000000000000000000000000000000000000000000001331908839573629LOJAS WORTEN                    750                   C0002C                                                                                                                             
300006563610704491808872002JOAQUIM AUGUSTO COSTA GODINHO                                                                                                               RUA DA ROCADA N20                                                                                                                           S VICENTE DE PEREIRA JUSA          3880-892S VICENTE DE PEREIRA JUSA               620                                                              
4000065636107044918088720021908839573629  00000000                                                                                                                                                                                                                                                                                                                                                                                                                     
900000013000000000000000000000000000000000                                                                                                                                                                                                                                                                                                                                                                                                                             
0MELCB0008481201402070052014020700497862000000000                                                                                                                                                                                                                                                                                                                                                                                                                      
163610705101033  N001        206843010101                                                      00000000000000000000000000000000000D                                                                                                                                                                                                                                                                                                                                    
20000666361070549180175200211000000000010000014038//JOAQUIM CORREIA                                     1029999999990000000000000000000010480120473811004000009999000000000000000000000009999000000000000000000000000000000000000000000000000000000000000000001321908885202832LOJAS VOBIS                     750                   C0002D                                                                                                                             
300006663610705491801752002JOAQUIM FERNANDO FERREIRA CORREIA                                                                                                           QTA DAS DROGAS PCT 1 N7 RC DT                                                                                                               ALVERCA DO RIBATEJO                2615-377ALVERCA DO RIBATEJO                     620                                                              
4000066636107054918017520021908885202832  00000000                                                                                                                                                                                                                                                                                                                                                                                                                     
20000726361070549180183200211000000000010000014038//JOAO DOMINGUEZ                                      1029999999990000000000000000000010480459412711004000009999000000000000000000000009999000000000000000000000000000000000000000000000000000000000000000001321908885202849LOJAS VOBIS                    1250                   C0002J                                                                                                                             
300007263610705491801832002JOAO MANUEL MENDES DOMINGUEZ                                                                                                                RUA LUIS MONTEIRO N4                                                                                                                        LISBOA                             1900-331LISBOA                                  620                                                              
4000072636107054918018320021908885202849  00000000                                                                                                                                                                                                                                                                                                                                                                                                                     
20000736361070549180191200211000000000010000014038//CECILIA SILVA ANDRADE                               1029999999990000000000000000000010480548016911004000009999000000000000000000000009999000000000000000000000000000000000000000000000000000000000000000001321908885202856LOJAS VOBIS                    1000                   C0002K                                                                                                                             
300007363610705491801912002CECILIA SILVA ANDRADE                                                                                                                       TRAVESSA DAS TELAS 9                                                                                                                        CANHAS                             9360-346CANHAS                                  620                                                              
4000073636107054918019120021908885202856  00000000                                                                                                                                                                                                                                                                                                                                                                                                                     
20000746361070549180209200211000000000010000014038//ANABELA FONSECA LEAL                                1029999999990000000000000000000010480566227911004000009999000000000000000000000009999000000000000000000000000000000000000000000000000000000000000000001321908885202863LOJAS VOBIS                    1250                   C0002L                                                                                                                             
300007463610705491802092002ANABELA FONSECA DIAS LEAL                                                                                                                   RUA COSTA CABRAL N618 2ESQ TRAS                                                                                                             PORTO                              4200-211PORTO                                   620                                                              
4000074636107054918020920021908885202863  00000000                                                                                                                                                                                                                                                                                                                                                                                                                     
20000776361070549180217200211000000000010000014038//JOSE ANTONIO DIAS                                   1029999999990000000000000000000010481118914311004000009999000000000000000000000009999000000000000000000000000000000000000000000000000000000000000000001321908885202870LOJAS VOBIS                     750                   C0002O                                                                                                                             
300007763610705491802172002JOSE ANTONIO ESCUDEIRO DIAS                                                                                                                 R MARIA ADELAIDE ROSADO                                               PINTO N5 1D                                                           SETUBAL                            2900-693SETUBAL                                 620                                                              
4000077636107054918021720021908885202870  00000000                                                                                                                                                                                                                                                                                                                                                                                                                     
900000016000000000000000000000000000000000                                                                                                                                                                                                                                                                                                                                                                                                                             
