0MELCB0008481201402040012014020300597862000000000                                                                                                                                                                                                                                                                                                                                                                                                                      
152806900111034D N001        202213010101                                                      00200100300000000000000000000000000                                                                                                                                                                                                                                                                                                                                     
20000015280690000308419160211000000000010000014052//NUNO FILIPE LIBORIO                                 102999999999000000000000000000001042070190031100400000999900000000000000000000000999900000000000000000000000000000000000000000000000000000000000000000101             WHITE                           500 2000,00 EUROS     C00039                                                                                                                             
300000152806900003084191602NUNO FILIPE RUFINO LIBORIO                                                                                                                  R DO MONTE N50 W                                                      FAJA DE BAIXO                                                         PONTA DELGADA                      9500-451PONTA DELGADA                           620                                                              
20000025280690000308427160211000000000010000014052//JULIO MANUEL PIRES                                  102999999999000000000000000000001042601011441100400000999900000000000000000000000999900000000000000000000000000000000000000000000000000000000000000000101             WHITE                          1250 2000,00 EUROS     C0003A                                                                                                                             
300000252806900003084271602JULIO MANUEL RODRIGUES PIRES                                                                                                                EST BARRAGEM ODIAXERE                                                 QTA ACHADA                                                            ODIAXERE                           8600-250ODIAXERE                                620                                                              
900000005000000000000000000000000000000000                                                                                                                                                                                                                                                                                                                                                                                                                             
