0MEFC103084812011053100120110430001201105319780022777                                                 
1201105310511101510022777PT503016160   DIRECTOR MEIOS E PROJECTOS              300                    
2D     Esquemas Cartao                                                                                
3D 1   Acesso Esquema Crt MB                                                                          
4D 1 2 201105311                        Mensalidade           000050000000000000000000010000000050000D
6D 1   0000000050000D                                                                                 
3D 2   Utiliz Esq Crt MB-Emis                                                                         
4D 2 1 20110501MDST520110501001         De 1 a 1500000        000000000044000000000002770000000000012D
4D 2 1 20110502MDST520110502001         De 1 a 1500000        000000000044000000000003700000000000016D
4D 2 1 20110503MDST520110503001         De 1 a 1500000        000000000044000000000008220000000000036D
4D 2 1 20110504MDST520110504001         De 1 a 1500000        000000000044000000000007400000000000033D
4D 2 1 20110504MDST620110504001         De 1 a 1500000        000000000044000000000002260000000000010D
4D 2 1 20110505MDST520110505001         De 1 a 1500000        000000000044000000000006490000000000029D
4D 2 1 20110506MDST520110506001         De 1 a 1500000        000000000044000000000006130000000000027D
4D 2 1 20110507MDST520110507001         De 1 a 1500000        000000000044000000000005250000000000023D
4D 2 1 20110507MDST620110507001         De 1 a 1500000        000000000044000000000002260000000000010D
4D 2 1 20110508MDST520110508001         De 1 a 1500000        000000000044000000000003630000000000016D
4D 2 1 20110509MDST520110509001         De 1 a 1500000        000000000044000000000004810000000000021D
4D 2 1 20110510MDST520110510001         De 1 a 1500000        000000000044000000000004620000000000020D
4D 2 1 20110511MDST520110511001         De 1 a 1500000        000000000044000000000004220000000000019D
4D 2 1 20110512MDST520110512001         De 1 a 1500000        000000000044000000000004470000000000020D
4D 2 1 20110513MDST520110513001         De 1 a 1500000        000000000044000000000005150000000000023D
4D 2 1 20110514MDST520110514001         De 1 a 1500000        000000000044000000000004990000000000022D
4D 2 1 20110514MDST620110514001         De 1 a 1500000        000000000044000000000004640000000000020D
4D 2 1 20110515MDST520110515001         De 1 a 1500000        000000000044000000000003520000000000015D
4D 2 1 20110516MDST520110516001         De 1 a 1500000        000000000044000000000004990000000000022D
4D 2 1 20110517MDST520110517001         De 1 a 1500000        000000000044000000000004420000000000019D
4D 2 1 20110518MDST520110518001         De 1 a 1500000        000000000044000000000004930000000000022D
4D 2 1 20110519MDST520110519001         De 1 a 1500000        000000000044000000000005260000000000023D
4D 2 1 20110520MDST520110520001         De 1 a 1500000        000000000044000000000005040000000000022D
4D 2 1 20110521MDST520110521001         De 1 a 1500000        000000000044000000000005310000000000023D
4D 2 1 20110521MDST620110521001         De 1 a 1500000        000000000044000000000004870000000000021D
4D 2 1 20110522MDST520110522001         De 1 a 1500000        000000000044000000000003690000000000016D
4D 2 1 20110523MDST520110523001         De 1 a 1500000        000000000044000000000004100000000000018D
4D 2 1 20110524MDST520110524001         De 1 a 1500000        000000000044000000000004000000000000018D
4D 2 1 20110525MDST520110525001         De 1 a 1500000        000000000044000000000003800000000000017D
4D 2 1 20110526MDST520110526001         De 1 a 1500000        000000000044000000000004020000000000018D
4D 2 1 20110527MDST520110527001         De 1 a 1500000        000000000044000000000004270000000000019D
4D 2 1 20110528MDST520110528001         De 1 a 1500000        000000000044000000000004030000000000018D
4D 2 1 20110529MDST520110529001         De 1 a 1500000        000000000044000000000003210000000000014D
4D 2 1 20110530MDST520110530001         De 1 a 1500000        000000000044000000000002890000000000013D
4D 2 1 20110531MDST520110531001         De 1 a 1500000        000000000044000000000003260000000000014D
4D 2 1 20110531MDST620110531001         De 1 a 1500000        000000000044000000000007430000000000033D
6D 2   0000000000722D                                                                                 
3D 5   Utiliz Esq Crt MBSPOT-                                                                         
4D 5 1 20110501MDST520110501001         De 1 a 750000         000000000059000000000005010000000000030D
4D 5 1 20110502MDST520110502001         De 1 a 750000         000000000059000000000009530000000000056D
4D 5 1 20110503MDST520110503001         De 1 a 750000         000000000059000000000012110000000000071D
4D 5 1 20110504MDST520110504001         De 1 a 750000         000000000059000000000009750000000000058D
4D 5 1 20110505MDST520110505001         De 1 a 750000         000000000059000000000008870000000000052D
4D 5 1 20110506MDST520110506001         De 1 a 750000         000000000059000000000007620000000000045D
4D 5 1 20110507MDST520110507001         De 1 a 750000         000000000059000000000006490000000000038D
4D 5 1 20110508MDST520110508001         De 1 a 750000         000000000059000000000004760000000000028D
4D 5 1 20110509MDST520110509001         De 1 a 750000         000000000059000000000006550000000000039D
4D 5 1 20110510MDST520110510001         De 1 a 750000         000000000059000000000006060000000000036D
4D 5 1 20110511MDST520110511001         De 1 a 750000         000000000059000000000005740000000000034D
4D 5 1 20110512MDST520110512001         De 1 a 750000         000000000059000000000006070000000000036D
4D 5 1 20110513MDST520110513001         De 1 a 750000         000000000059000000000005740000000000034D
4D 5 1 20110514MDST520110514001         De 1 a 750000         000000000059000000000005310000000000031D
4D 5 1 20110515MDST520110515001         De 1 a 750000         000000000059000000000004170000000000025D
4D 5 1 20110516MDST520110516001         De 1 a 750000         000000000059000000000006040000000000036D
4D 5 1 20110517MDST520110517001         De 1 a 750000         000000000059000000000005900000000000035D
4D 5 1 20110518MDST520110518001         De 1 a 750000         000000000059000000000006910000000000041D
4D 5 1 20110519MDST520110519001         De 1 a 750000         000000000059000000000006570000000000039D
4D 5 1 20110520MDST520110520001         De 1 a 750000         000000000059000000000006400000000000038D
4D 5 1 20110521MDST520110521001         De 1 a 750000         000000000059000000000005890000000000035D
4D 5 1 20110522MDST520110522001         De 1 a 750000         000000000059000000000004770000000000028D
4D 5 1 20110523MDST520110523001         De 1 a 750000         000000000059000000000005410000000000032D
4D 5 1 20110524MDST520110524001         De 1 a 750000         000000000059000000000005610000000000033D
4D 5 1 20110525MDST520110525001         De 1 a 750000         000000000059000000000005820000000000034D
4D 5 1 20110526MDST520110526001         De 1 a 750000         000000000059000000000005300000000000031D
4D 5 1 20110527MDST520110527001         De 1 a 750000         000000000059000000000005320000000000031D
4D 5 1 20110528MDST520110528001         De 1 a 750000         000000000059000000000004550000000000027D
4D 5 1 20110529MDST520110529001         De 1 a 750000         000000000059000000000004040000000000024D
4D 5 1 20110530MDST520110530001         De 1 a 750000         000000000059000000000004680000000000028D
4D 5 1 20110531MDST520110531001         De 1 a 750000         000000000059000000000005260000000000031D
6D 5   0000000001136D                                                                                 
7D     0000000000051858D                                                                              
80000000000051858D0000000000011927D0000000000063785D                                                  
90000007800000000000637850000000000000000000000000000   0000000000000000000000000   000000   000000   
