0SIADSISRPTPL   PT51200676 201601280120160127010120160128      0000000000    COR
2D29MAND-666800-10-0126083536728       PT51200676                      20160127072500PT50001800031601126402089         TOTAPTP0XXXRCUR9999999999999EUR9999121NOME DO CREDOR                                                                                                                           TOTAPTP0XXX20160202999912310000000020160116PT23ZZZ200676                      ADHO1
2I2901000574112                        PT51200676                      20160127071408PT50001800002816082400133         TOTAPTP0XXXRCUR9999999999999EUR9999121NOME DO CREDOR                                                                                                                           TOTAPTP0XXX20160203999912312016012720160126PT51ZZZ200676                      ADHO1
2I2901000666553                        PT51200676                      20160127071408PT50001800001096937800151         TOTAPTP0XXXRCUR9999999999999EUR9999121NOME DO CREDOR                                                                                                                           TOTAPTP0XXX20160203999912312016012720160126PT51ZZZ200676                      ADHO1
2D2901020143086                        PT51200676                      20160126151443PT50001800033953510902095         TOTAPTP0XXXRCUR9999999999999EUR9999121NOME DO CREDOR                                                                                                                           TOTAPTP0XXX20160202999912310000000020141219PT51ZZZ200676                      ADHO1
2I2901021042567                        PT51200676                      20160127071408PT50001800001151871600146         TOTAPTP0XXXRCUR9999999999999EUR9999121NOME DO CREDOR                                                                                                                           TOTAPTP0XXX20160203999912312016012720160126PT51ZZZ200676                      ADHO1
2D2911161048504                        PT51200676                      20160127083507PT50001800031043580802041         TOTAPTP0   RCUR9999999999999EUR9999121NOME DO CREDOR                                                                                                                           TOTAPTP0   20160127999912310000000020151217PT95ZZZ200676                      ADHO1
2E2911161048504                        PT51200676                      20160127083507PT50001802550020001177339         TOTAPTP0   RCUR9999999999999EUR2017011NOME DO CREDOR                                                                                                                           TOTAPTP0   20160112999912310000000020151217PT95ZZZ200676                      ADHO1
2I29BNPPARIBASCORE001                  PT51200676                      20160127104519PT50003401090080010011544         BNPAPTP0XXXRCUR9999999999999EUR9999121NOME DO CREDOR                                                                                                                           TOTAPTP0   20160204999912312016012720150916PT40ZZZ200676                      ADHO7
2A21BNPPARIBASCORE0010                 PT51200676                      20160127104519PT50003401090080010011544         BNPAPTP0XXXRCUR0000000000200EUR9999121NOME DO CREDOR                                                                                                                           TOTAPTP0   20160204999912310000000020150916PT40ZZZ200676                      ADHO1
2Y21BNPPARIBASCORE002                  PT51200676                      20160127104519PT50003401090080010011544         BNPAPTP0XXX    9999999999999EUR9999121NOME DO CREDOR                                                                                                                           TOTAPTP0   20160204999912310000000020160128PT40ZZZ200676                      ADHO2
2Y21BNPPARIBASCORE003                  PT51200676                      20160127104519PT50003401090080010011544         BNPAPTP0XXX    9999999999999EUR9999121NOME DO CREDOR                                                                                                                           TOTAPTP0   20160204999912310000000020160128PT40ZZZ200676                      ADHO2
2N21BNPPARIBASCORE004                  PT51200676                      20160127104519PT50003401090080010011544         BNPAPTP0XXX    9999999999999EUR9999121NOME DO CREDOR                                                                                                                           TOTAPTP0   20160204999912310000000020150916PT40ZZZ200676                      ADHO1
2C29BNPPARIBASCORE005                  PT51200676                      20160127104519PT50003401090013072018744         BNPAPTP0XXXRCUR9999999999999EUR9999121NOME DO CREDOR                                                                                                                           TOTAPTP0   20160204999912310000000020150916PT40ZZZ200676                      ADHO1
9000000013000000000000000000000000000000000000
